{
  "address": "0x3b79dc944514d69a59159bC243BE2c0737947D0f",
  "abi": [
    {
      "inputs": [],
      "stateMutability": "nonpayable",
      "type": "constructor"
    },
    {
      "inputs": [],
      "name": "InvalidShortString",
      "type": "error"
    },
    {
      "inputs": [
        {
          "internalType": "string",
          "name": "str",
          "type": "string"
        }
      ],
      "name": "StringTooLong",
      "type": "error"
    },
    {
      "anonymous": false,
      "inputs": [],
      "name": "EIP712DomainChanged",
      "type": "event"
    },
    {
      "inputs": [
        {
          "internalType": "bytes",
          "name": "_amount0",
          "type": "bytes"
        },
        {
          "internalType": "bytes",
          "name": "_amount1",
          "type": "bytes"
        }
      ],
      "name": "addLiquidity",
      "outputs": [
        {
          "internalType": "uint256",
          "name": "shares",
          "type": "uint256"
        }
      ],
      "stateMutability": "nonpayable",
      "type": "function"
    },
    {
      "inputs": [
        {
          "internalType": "address",
          "name": "",
          "type": "address"
        }
      ],
      "name": "balanceOf",
      "outputs": [
        {
          "internalType": "uint256",
          "name": "",
          "type": "uint256"
        }
      ],
      "stateMutability": "view",
      "type": "function"
    },
    {
      "inputs": [],
      "name": "eip712Domain",
      "outputs": [
        {
          "internalType": "bytes1",
          "name": "fields",
          "type": "bytes1"
        },
        {
          "internalType": "string",
          "name": "name",
          "type": "string"
        },
        {
          "internalType": "string",
          "name": "version",
          "type": "string"
        },
        {
          "internalType": "uint256",
          "name": "chainId",
          "type": "uint256"
        },
        {
          "internalType": "address",
          "name": "verifyingContract",
          "type": "address"
        },
        {
          "internalType": "bytes32",
          "name": "salt",
          "type": "bytes32"
        },
        {
          "internalType": "uint256[]",
          "name": "extensions",
          "type": "uint256[]"
        }
      ],
      "stateMutability": "view",
      "type": "function"
    },
    {
      "inputs": [],
      "name": "factory",
      "outputs": [
        {
          "internalType": "address",
          "name": "",
          "type": "address"
        }
      ],
      "stateMutability": "view",
      "type": "function"
    },
    {
      "inputs": [
        {
          "internalType": "address",
          "name": "_token0",
          "type": "address"
        },
        {
          "internalType": "address",
          "name": "_token1",
          "type": "address"
        }
      ],
      "name": "initialize",
      "outputs": [],
      "stateMutability": "nonpayable",
      "type": "function"
    },
    {
      "inputs": [
        {
          "internalType": "bytes",
          "name": "_shares",
          "type": "bytes"
        }
      ],
      "name": "removeLiquidity",
      "outputs": [
        {
          "internalType": "uint256",
          "name": "amount0",
          "type": "uint256"
        },
        {
          "internalType": "uint256",
          "name": "amount1",
          "type": "uint256"
        }
      ],
      "stateMutability": "nonpayable",
      "type": "function"
    },
    {
      "inputs": [],
      "name": "reserve0",
      "outputs": [
        {
          "internalType": "uint256",
          "name": "",
          "type": "uint256"
        }
      ],
      "stateMutability": "view",
      "type": "function"
    },
    {
      "inputs": [],
      "name": "reserve1",
      "outputs": [
        {
          "internalType": "uint256",
          "name": "",
          "type": "uint256"
        }
      ],
      "stateMutability": "view",
      "type": "function"
    },
    {
      "inputs": [
        {
          "internalType": "address",
          "name": "_tokenIn",
          "type": "address"
        },
        {
          "internalType": "bytes",
          "name": "_amountIn",
          "type": "bytes"
        }
      ],
      "name": "swap",
      "outputs": [
        {
          "internalType": "uint256",
          "name": "amountOut",
          "type": "uint256"
        }
      ],
      "stateMutability": "nonpayable",
      "type": "function"
    },
    {
      "inputs": [],
      "name": "token0",
      "outputs": [
        {
          "internalType": "contract IERC20",
          "name": "",
          "type": "address"
        }
      ],
      "stateMutability": "view",
      "type": "function"
    },
    {
      "inputs": [],
      "name": "token1",
      "outputs": [
        {
          "internalType": "contract IERC20",
          "name": "",
          "type": "address"
        }
      ],
      "stateMutability": "view",
      "type": "function"
    },
    {
      "inputs": [],
      "name": "totalSupply",
      "outputs": [
        {
          "internalType": "uint256",
          "name": "",
          "type": "uint256"
        }
      ],
      "stateMutability": "view",
      "type": "function"
    }
  ],
  "transactionHash": "0x815cb79f5a548504d1818052f1df7a36c66d04886e2d56544d1973e676623436",
  "args": [],
  "numDeployments": 1,
  "solcInputHash": "c97f5489fe9e1f0555753f125d1544e1",
  "bytecode": "0x6101806040523480156200001257600080fd5b506040518060400160405280600a81526020017f417574685f4552433230000000000000000000000000000000000000000000008152506040518060400160405280600181526020017f31000000000000000000000000000000000000000000000000000000000000008152508181620000976000836200016e60201b90919060201c565b6101208181525050620000b56001826200016e60201b90919060201c565b6101408181525050818051906020012060e08181525050808051906020012061010081815250504660a08181525050620000f4620001c660201b60201c565b608081815250503073ffffffffffffffffffffffffffffffffffffffff1660c08173ffffffffffffffffffffffffffffffffffffffff1681525050505050503373ffffffffffffffffffffffffffffffffffffffff166101608173ffffffffffffffffffffffffffffffffffffffff16815250506200081e565b600060208351101562000194576200018c836200022360201b60201c565b9050620001c0565b82620001a6836200029060201b60201c565b6000019081620001b7919062000514565b5060ff60001b90505b92915050565b60007f8b73c3c69bb8fe3d512ecc4cf759cc79239f7b179b0ffacaa9a75d522b39400f60e051610100514630604051602001620002089594939291906200066c565b60405160208183030381529060405280519060200120905090565b600080829050601f815111156200027357826040517f305a27a90000000000000000000000000000000000000000000000000000000081526004016200026a919062000758565b60405180910390fd5b8051816200028190620007ae565b60001c1760001b915050919050565b6000819050919050565b600081519050919050565b7f4e487b7100000000000000000000000000000000000000000000000000000000600052604160045260246000fd5b7f4e487b7100000000000000000000000000000000000000000000000000000000600052602260045260246000fd5b600060028204905060018216806200031c57607f821691505b602082108103620003325762000331620002d4565b5b50919050565b60008190508160005260206000209050919050565b60006020601f8301049050919050565b600082821b905092915050565b6000600883026200039c7fffffffffffffffffffffffffffffffffffffffffffffffffffffffffffffffff826200035d565b620003a886836200035d565b95508019841693508086168417925050509392505050565b6000819050919050565b6000819050919050565b6000620003f5620003ef620003e984620003c0565b620003ca565b620003c0565b9050919050565b6000819050919050565b6200041183620003d4565b620004296200042082620003fc565b8484546200036a565b825550505050565b600090565b6200044062000431565b6200044d81848462000406565b505050565b5b8181101562000475576200046960008262000436565b60018101905062000453565b5050565b601f821115620004c4576200048e8162000338565b62000499846200034d565b81016020851015620004a9578190505b620004c1620004b8856200034d565b83018262000452565b50505b505050565b600082821c905092915050565b6000620004e960001984600802620004c9565b1980831691505092915050565b6000620005048383620004d6565b9150826002028217905092915050565b6200051f826200029a565b67ffffffffffffffff8111156200053b576200053a620002a5565b5b62000547825462000303565b6200055482828562000479565b600060209050601f8311600181146200058c576000841562000577578287015190505b620005838582620004f6565b865550620005f3565b601f1984166200059c8662000338565b60005b82811015620005c6578489015182556001820191506020850194506020810190506200059f565b86831015620005e65784890151620005e2601f891682620004d6565b8355505b6001600288020188555050505b505050505050565b6000819050919050565b6200061081620005fb565b82525050565b6200062181620003c0565b82525050565b600073ffffffffffffffffffffffffffffffffffffffff82169050919050565b6000620006548262000627565b9050919050565b620006668162000647565b82525050565b600060a08201905062000683600083018862000605565b62000692602083018762000605565b620006a1604083018662000605565b620006b0606083018562000616565b620006bf60808301846200065b565b9695505050505050565b600082825260208201905092915050565b60005b83811015620006fa578082015181840152602081019050620006dd565b60008484015250505050565b6000601f19601f8301169050919050565b600062000724826200029a565b620007308185620006c9565b935062000742818560208601620006da565b6200074d8162000706565b840191505092915050565b6000602082019050818103600083015262000774818462000717565b905092915050565b600081519050919050565b6000819050602082019050919050565b6000620007a58251620005fb565b80915050919050565b6000620007bb826200077c565b82620007c78462000787565b9050620007d48162000797565b925060208210156200081757620008127fffffffffffffffffffffffffffffffffffffffffffffffffffffffffffffffff836020036008026200035d565b831692505b5050919050565b60805160a05160c05160e0516101005161012051610140516101605161229c6200087c60003960008181610a160152610c4a01526000610b8d01526000610b590152600050506000505060005050600050506000505061229c6000f3fe608060405234801561001057600080fd5b50600436106100b45760003560e01c80635a76f25e116100715780635a76f25e1461019057806370a08231146101ae57806384b0196e146101de578063c45a015514610202578063d21220a714610220578063e35473351461023e576100b4565b8063028318cf146100b95780630dfe1681146100ea57806316eb19131461010857806318160ddd14610138578063443cb4bc14610156578063485cc95514610174575b600080fd5b6100d360048036038101906100ce919061172d565b61026e565b6040516100e192919061178f565b60405180910390f35b6100f26105d1565b6040516100ff9190611837565b60405180910390f35b610122600480360381019061011d9190611852565b6105f7565b60405161012f91906118ca565b60405180910390f35b610140610a08565b60405161014d91906118ca565b60405180910390f35b61015e610a0e565b60405161016b91906118ca565b60405180910390f35b61018e60048036038101906101899190611923565b610a14565b005b610198610b28565b6040516101a591906118ca565b60405180910390f35b6101c860048036038101906101c39190611963565b610b2e565b6040516101d591906118ca565b60405180910390f35b6101e6610b46565b6040516101f99796959493929190611b30565b60405180910390f35b61020a610c48565b6040516102179190611bb4565b60405180910390f35b610228610c6c565b6040516102359190611837565b60405180910390f35b61025860048036038101906102539190611bcf565b610c92565b60405161026591906118ca565b60405180910390f35b600080600061028461027f8561117b565b61118f565b90506000600260009054906101000a900473ffffffffffffffffffffffffffffffffffffffff1673ffffffffffffffffffffffffffffffffffffffff166370a08231306040518263ffffffff1660e01b81526004016102e39190611bb4565b602060405180830381865afa158015610300573d6000803e3d6000fd5b505050506040513d601f19601f820116820180604052508101906103249190611c57565b90506000600360009054906101000a900473ffffffffffffffffffffffffffffffffffffffff1673ffffffffffffffffffffffffffffffffffffffff166370a08231306040518263ffffffff1660e01b81526004016103839190611bb4565b602060405180830381865afa1580156103a0573d6000803e3d6000fd5b505050506040513d601f19601f820116820180604052508101906103c49190611c57565b9050600654828463ffffffff166103db9190611cb3565b6103e59190611d24565b9450600654818463ffffffff166103fc9190611cb3565b6104069190611d24565b93506000851180156104185750600084115b610457576040517f08c379a000000000000000000000000000000000000000000000000000000000815260040161044e90611da1565b60405180910390fd5b610467338463ffffffff166111a1565b61048785836104769190611dc1565b85836104829190611dc1565b611214565b600260009054906101000a900473ffffffffffffffffffffffffffffffffffffffff1673ffffffffffffffffffffffffffffffffffffffff1663a9059cbb33876040518363ffffffff1660e01b81526004016104e4929190611df5565b6020604051808303816000875af1158015610503573d6000803e3d6000fd5b505050506040513d601f19601f820116820180604052508101906105279190611e56565b50600360009054906101000a900473ffffffffffffffffffffffffffffffffffffffff1673ffffffffffffffffffffffffffffffffffffffff1663a9059cbb33866040518363ffffffff1660e01b8152600401610585929190611df5565b6020604051808303816000875af11580156105a4573d6000803e3d6000fd5b505050506040513d601f19601f820116820180604052508101906105c89190611e56565b50505050915091565b600260009054906101000a900473ffffffffffffffffffffffffffffffffffffffff1681565b60008061060b6106068561117b565b61118f565b9050600061062061061b8561117b565b61118f565b9050600260009054906101000a900473ffffffffffffffffffffffffffffffffffffffff1673ffffffffffffffffffffffffffffffffffffffff166323b872dd33308563ffffffff166040518463ffffffff1660e01b815260040161068793929190611e83565b6020604051808303816000875af11580156106a6573d6000803e3d6000fd5b505050506040513d601f19601f820116820180604052508101906106ca9190611e56565b50600360009054906101000a900473ffffffffffffffffffffffffffffffffffffffff1673ffffffffffffffffffffffffffffffffffffffff166323b872dd33308463ffffffff166040518463ffffffff1660e01b815260040161073093929190611e83565b6020604051808303816000875af115801561074f573d6000803e3d6000fd5b505050506040513d601f19601f820116820180604052508101906107739190611e56565b506000600454118061078757506000600554115b156107f5578163ffffffff166005546107a09190611cb3565b8163ffffffff166004546107b49190611cb3565b146107f4576040517f08c379a00000000000000000000000000000000000000000000000000000000081526004016107eb90611f06565b60405180910390fd5b5b6000600654036108265761081f8163ffffffff168363ffffffff1661081a9190611cb3565b611226565b9250610873565b6108706004546006548463ffffffff166108409190611cb3565b61084a9190611d24565b6005546006548463ffffffff166108619190611cb3565b61086b9190611d24565b6112a0565b92505b600083116108b6576040517f08c379a00000000000000000000000000000000000000000000000000000000081526004016108ad90611f72565b60405180910390fd5b6108c033846112ba565b610a00600260009054906101000a900473ffffffffffffffffffffffffffffffffffffffff1673ffffffffffffffffffffffffffffffffffffffff166370a08231306040518263ffffffff1660e01b815260040161091e9190611bb4565b602060405180830381865afa15801561093b573d6000803e3d6000fd5b505050506040513d601f19601f8201168201806040525081019061095f9190611c57565b600360009054906101000a900473ffffffffffffffffffffffffffffffffffffffff1673ffffffffffffffffffffffffffffffffffffffff166370a08231306040518263ffffffff1660e01b81526004016109ba9190611bb4565b602060405180830381865afa1580156109d7573d6000803e3d6000fd5b505050506040513d601f19601f820116820180604052508101906109fb9190611c57565b611214565b505092915050565b60065481565b60045481565b7f000000000000000000000000000000000000000000000000000000000000000073ffffffffffffffffffffffffffffffffffffffff163373ffffffffffffffffffffffffffffffffffffffff1614610aa2576040517f08c379a0000000000000000000000000000000000000000000000000000000008152600401610a9990611fde565b60405180910390fd5b81600260006101000a81548173ffffffffffffffffffffffffffffffffffffffff021916908373ffffffffffffffffffffffffffffffffffffffff16021790555080600360006101000a81548173ffffffffffffffffffffffffffffffffffffffff021916908373ffffffffffffffffffffffffffffffffffffffff1602179055505050565b60055481565b60076020528060005260406000206000915090505481565b600060608060008060006060610b8660007f000000000000000000000000000000000000000000000000000000000000000061132d90919063ffffffff16565b610bba60017f000000000000000000000000000000000000000000000000000000000000000061132d90919063ffffffff16565b46306000801b600067ffffffffffffffff811115610bdb57610bda611602565b5b604051908082528060200260200182016040528015610c095781602001602082028036833780820191505090505b507f0f00000000000000000000000000000000000000000000000000000000000000959493929190965096509650965096509650965090919293949596565b7f000000000000000000000000000000000000000000000000000000000000000081565b600360009054906101000a900473ffffffffffffffffffffffffffffffffffffffff1681565b600080610ca6610ca18461117b565b61118f565b9050600260009054906101000a900473ffffffffffffffffffffffffffffffffffffffff1673ffffffffffffffffffffffffffffffffffffffff168473ffffffffffffffffffffffffffffffffffffffff161480610d515750600360009054906101000a900473ffffffffffffffffffffffffffffffffffffffff1673ffffffffffffffffffffffffffffffffffffffff168473ffffffffffffffffffffffffffffffffffffffff16145b610d90576040517f08c379a0000000000000000000000000000000000000000000000000000000008152600401610d879061204a565b60405180910390fd5b60008163ffffffff1611610dd9576040517f08c379a0000000000000000000000000000000000000000000000000000000008152600401610dd0906120b6565b60405180910390fd5b6000600260009054906101000a900473ffffffffffffffffffffffffffffffffffffffff1673ffffffffffffffffffffffffffffffffffffffff168573ffffffffffffffffffffffffffffffffffffffff1614905060008060008084610e8a57600360009054906101000a900473ffffffffffffffffffffffffffffffffffffffff16600260009054906101000a900473ffffffffffffffffffffffffffffffffffffffff16600554600454610ed7565b600260009054906101000a900473ffffffffffffffffffffffffffffffffffffffff16600360009054906101000a900473ffffffffffffffffffffffffffffffffffffffff166004546005545b93509350935093508373ffffffffffffffffffffffffffffffffffffffff166323b872dd33308963ffffffff166040518463ffffffff1660e01b8152600401610f2293929190611e83565b6020604051808303816000875af1158015610f41573d6000803e3d6000fd5b505050506040513d601f19601f82011682018060405250810190610f659190611e56565b5060006103e86103e58863ffffffff16610f7f9190611cb3565b610f899190611d24565b90508083610f9791906120d6565b8183610fa39190611cb3565b610fad9190611d24565b97508373ffffffffffffffffffffffffffffffffffffffff1663a9059cbb338a6040518363ffffffff1660e01b8152600401610fea929190611df5565b6020604051808303816000875af1158015611009573d6000803e3d6000fd5b505050506040513d601f19601f8201168201806040525081019061102d9190611e56565b5061116e600260009054906101000a900473ffffffffffffffffffffffffffffffffffffffff1673ffffffffffffffffffffffffffffffffffffffff166370a08231306040518263ffffffff1660e01b815260040161108c9190611bb4565b602060405180830381865afa1580156110a9573d6000803e3d6000fd5b505050506040513d601f19601f820116820180604052508101906110cd9190611c57565b600360009054906101000a900473ffffffffffffffffffffffffffffffffffffffff1673ffffffffffffffffffffffffffffffffffffffff166370a08231306040518263ffffffff1660e01b81526004016111289190611bb4565b602060405180830381865afa158015611145573d6000803e3d6000fd5b505050506040513d601f19601f820116820180604052508101906111699190611c57565b611214565b5050505050505092915050565b60006111888260026113dd565b9050919050565b600061119a8261148b565b9050919050565b80600760008473ffffffffffffffffffffffffffffffffffffffff1673ffffffffffffffffffffffffffffffffffffffff16815260200190815260200160002060008282546111f09190611dc1565b9250508190555080600660008282546112099190611dc1565b925050819055505050565b81600481905550806005819055505050565b6000600382111561128d57819050600060016002846112459190611d24565b61124f91906120d6565b90505b8181101561128757809150600281828561126c9190611d24565b61127691906120d6565b6112809190611d24565b9050611252565b5061129b565b6000821461129a57600190505b5b919050565b6000818311156112b057816112b2565b825b905092915050565b80600760008473ffffffffffffffffffffffffffffffffffffffff1673ffffffffffffffffffffffffffffffffffffffff168152602001908152602001600020600082825461130991906120d6565b92505081905550806006600082825461132291906120d6565b925050819055505050565b606060ff60001b831461134a576113438361150f565b90506113d7565b81805461135690612139565b80601f016020809104026020016040519081016040528092919081815260200182805461138290612139565b80156113cf5780601f106113a4576101008083540402835291602001916113cf565b820191906000526020600020905b8154815290600101906020018083116113b257829003601f168201915b505050505090505b92915050565b600080838360f81b6040516020016113f69291906121d2565b6040516020818303038152906040529050605d73ffffffffffffffffffffffffffffffffffffffff16634b252ec8826040518263ffffffff1660e01b81526004016114419190612244565b602060405180830381865afa15801561145e573d6000803e3d6000fd5b505050506040513d601f19601f820116820180604052508101906114829190611c57565b91505092915050565b6000605d73ffffffffffffffffffffffffffffffffffffffff16635a4ee440836040518263ffffffff1660e01b81526004016114c791906118ca565b602060405180830381865afa1580156114e4573d6000803e3d6000fd5b505050506040513d601f19601f820116820180604052508101906115089190611c57565b9050919050565b6060600061151c83611583565b90506000602067ffffffffffffffff81111561153b5761153a611602565b5b6040519080825280601f01601f19166020018201604052801561156d5781602001600182028036833780820191505090505b5090508181528360208201528092505050919050565b60008060ff8360001c169050601f8111156115ca576040517fb3512b0c00000000000000000000000000000000000000000000000000000000815260040160405180910390fd5b80915050919050565b6000604051905090565b600080fd5b600080fd5b600080fd5b600080fd5b6000601f19601f8301169050919050565b7f4e487b7100000000000000000000000000000000000000000000000000000000600052604160045260246000fd5b61163a826115f1565b810181811067ffffffffffffffff8211171561165957611658611602565b5b80604052505050565b600061166c6115d3565b90506116788282611631565b919050565b600067ffffffffffffffff82111561169857611697611602565b5b6116a1826115f1565b9050602081019050919050565b82818337600083830152505050565b60006116d06116cb8461167d565b611662565b9050828152602081018484840111156116ec576116eb6115ec565b5b6116f78482856116ae565b509392505050565b600082601f830112611714576117136115e7565b5b81356117248482602086016116bd565b91505092915050565b600060208284031215611743576117426115dd565b5b600082013567ffffffffffffffff811115611761576117606115e2565b5b61176d848285016116ff565b91505092915050565b6000819050919050565b61178981611776565b82525050565b60006040820190506117a46000830185611780565b6117b16020830184611780565b9392505050565b600073ffffffffffffffffffffffffffffffffffffffff82169050919050565b6000819050919050565b60006117fd6117f86117f3846117b8565b6117d8565b6117b8565b9050919050565b600061180f826117e2565b9050919050565b600061182182611804565b9050919050565b61183181611816565b82525050565b600060208201905061184c6000830184611828565b92915050565b60008060408385031215611869576118686115dd565b5b600083013567ffffffffffffffff811115611887576118866115e2565b5b611893858286016116ff565b925050602083013567ffffffffffffffff8111156118b4576118b36115e2565b5b6118c0858286016116ff565b9150509250929050565b60006020820190506118df6000830184611780565b92915050565b60006118f0826117b8565b9050919050565b611900816118e5565b811461190b57600080fd5b50565b60008135905061191d816118f7565b92915050565b6000806040838503121561193a576119396115dd565b5b60006119488582860161190e565b92505060206119598582860161190e565b9150509250929050565b600060208284031215611979576119786115dd565b5b60006119878482850161190e565b91505092915050565b60007fff0000000000000000000000000000000000000000000000000000000000000082169050919050565b6119c581611990565b82525050565b600081519050919050565b600082825260208201905092915050565b60005b83811015611a055780820151818401526020810190506119ea565b60008484015250505050565b6000611a1c826119cb565b611a2681856119d6565b9350611a368185602086016119e7565b611a3f816115f1565b840191505092915050565b611a53816118e5565b82525050565b6000819050919050565b611a6c81611a59565b82525050565b600081519050919050565b600082825260208201905092915050565b6000819050602082019050919050565b611aa781611776565b82525050565b6000611ab98383611a9e565b60208301905092915050565b6000602082019050919050565b6000611add82611a72565b611ae78185611a7d565b9350611af283611a8e565b8060005b83811015611b23578151611b0a8882611aad565b9750611b1583611ac5565b925050600181019050611af6565b5085935050505092915050565b600060e082019050611b45600083018a6119bc565b8181036020830152611b578189611a11565b90508181036040830152611b6b8188611a11565b9050611b7a6060830187611780565b611b876080830186611a4a565b611b9460a0830185611a63565b81810360c0830152611ba68184611ad2565b905098975050505050505050565b6000602082019050611bc96000830184611a4a565b92915050565b60008060408385031215611be657611be56115dd565b5b6000611bf48582860161190e565b925050602083013567ffffffffffffffff811115611c1557611c146115e2565b5b611c21858286016116ff565b9150509250929050565b611c3481611776565b8114611c3f57600080fd5b50565b600081519050611c5181611c2b565b92915050565b600060208284031215611c6d57611c6c6115dd565b5b6000611c7b84828501611c42565b91505092915050565b7f4e487b7100000000000000000000000000000000000000000000000000000000600052601160045260246000fd5b6000611cbe82611776565b9150611cc983611776565b9250828202611cd781611776565b91508282048414831517611cee57611ced611c84565b5b5092915050565b7f4e487b7100000000000000000000000000000000000000000000000000000000600052601260045260246000fd5b6000611d2f82611776565b9150611d3a83611776565b925082611d4a57611d49611cf5565b5b828204905092915050565b7f616d6f756e7430206f7220616d6f756e7431203d203000000000000000000000600082015250565b6000611d8b6016836119d6565b9150611d9682611d55565b602082019050919050565b60006020820190508181036000830152611dba81611d7e565b9050919050565b6000611dcc82611776565b9150611dd783611776565b9250828203905081811115611def57611dee611c84565b5b92915050565b6000604082019050611e0a6000830185611a4a565b611e176020830184611780565b9392505050565b60008115159050919050565b611e3381611e1e565b8114611e3e57600080fd5b50565b600081519050611e5081611e2a565b92915050565b600060208284031215611e6c57611e6b6115dd565b5b6000611e7a84828501611e41565b91505092915050565b6000606082019050611e986000830186611a4a565b611ea56020830185611a4a565b611eb26040830184611780565b949350505050565b7f78202f207920213d206478202f20647900000000000000000000000000000000600082015250565b6000611ef06010836119d6565b9150611efb82611eba565b602082019050919050565b60006020820190508181036000830152611f1f81611ee3565b9050919050565b7f736861726573203d203000000000000000000000000000000000000000000000600082015250565b6000611f5c600a836119d6565b9150611f6782611f26565b602082019050919050565b60006020820190508181036000830152611f8b81611f4f565b9050919050565b7f464f5242494444454e0000000000000000000000000000000000000000000000600082015250565b6000611fc86009836119d6565b9150611fd382611f92565b602082019050919050565b60006020820190508181036000830152611ff781611fbb565b9050919050565b7f696e76616c696420746f6b656e00000000000000000000000000000000000000600082015250565b6000612034600d836119d6565b915061203f82611ffe565b602082019050919050565b6000602082019050818103600083015261206381612027565b9050919050565b7f616d6f756e7420696e203d203000000000000000000000000000000000000000600082015250565b60006120a0600d836119d6565b91506120ab8261206a565b602082019050919050565b600060208201905081810360008301526120cf81612093565b9050919050565b60006120e182611776565b91506120ec83611776565b925082820190508082111561210457612103611c84565b5b92915050565b7f4e487b7100000000000000000000000000000000000000000000000000000000600052602260045260246000fd5b6000600282049050600182168061215157607f821691505b6020821081036121645761216361210a565b5b50919050565b600081519050919050565b600081905092915050565b600061218b8261216a565b6121958185612175565b93506121a58185602086016119e7565b80840191505092915050565b6000819050919050565b6121cc6121c782611990565b6121b1565b82525050565b60006121de8285612180565b91506121ea82846121bb565b6001820191508190509392505050565b600082825260208201905092915050565b60006122168261216a565b61222081856121fa565b93506122308185602086016119e7565b612239816115f1565b840191505092915050565b6000602082019050818103600083015261225e818461220b565b90509291505056fea2646970667358221220364ecb566174435c089151f21b263c8294f162d9248e8dd386f1f9db4653a69b64736f6c63430008130033",
  "devdoc": {
    "events": {
      "EIP712DomainChanged()": {
        "details": "MAY be emitted to signal that the domain could have changed."
      }
    },
    "kind": "dev",
    "methods": {
      "eip712Domain()": {
        "details": "See {EIP-5267}. _Available since v4.9._"
      }
    },
    "version": 1
  },
  "userdoc": {
    "kind": "user",
    "methods": {},
    "version": 1
  },
  "storageLayout": {
    "storage": [
      {
        "astId": 978,
        "contract": "contracts/EncryptedPair.sol:Pair",
        "label": "_nameFallback",
        "offset": 0,
        "slot": "0",
        "type": "t_string_storage"
      },
      {
        "astId": 980,
        "contract": "contracts/EncryptedPair.sol:Pair",
        "label": "_versionFallback",
        "offset": 0,
        "slot": "1",
        "type": "t_string_storage"
      },
      {
        "astId": 2130,
        "contract": "contracts/EncryptedPair.sol:Pair",
        "label": "token0",
        "offset": 0,
        "slot": "2",
        "type": "t_contract(IERC20)2941"
      },
      {
        "astId": 2133,
        "contract": "contracts/EncryptedPair.sol:Pair",
        "label": "token1",
        "offset": 0,
        "slot": "3",
        "type": "t_contract(IERC20)2941"
      },
      {
        "astId": 2137,
        "contract": "contracts/EncryptedPair.sol:Pair",
        "label": "reserve0",
        "offset": 0,
        "slot": "4",
        "type": "t_uint256"
      },
      {
        "astId": 2139,
        "contract": "contracts/EncryptedPair.sol:Pair",
        "label": "reserve1",
        "offset": 0,
        "slot": "5",
        "type": "t_uint256"
      },
      {
        "astId": 2141,
        "contract": "contracts/EncryptedPair.sol:Pair",
        "label": "totalSupply",
        "offset": 0,
        "slot": "6",
        "type": "t_uint256"
      },
      {
        "astId": 2145,
        "contract": "contracts/EncryptedPair.sol:Pair",
        "label": "balanceOf",
        "offset": 0,
        "slot": "7",
        "type": "t_mapping(t_address,t_uint256)"
      }
    ],
    "types": {
      "t_address": {
        "encoding": "inplace",
        "label": "address",
        "numberOfBytes": "20"
      },
      "t_contract(IERC20)2941": {
        "encoding": "inplace",
        "label": "contract IERC20",
        "numberOfBytes": "20"
      },
      "t_mapping(t_address,t_uint256)": {
        "encoding": "mapping",
        "key": "t_address",
        "label": "mapping(address => uint256)",
        "numberOfBytes": "32",
        "value": "t_uint256"
      },
      "t_string_storage": {
        "encoding": "bytes",
        "label": "string",
        "numberOfBytes": "32"
      },
      "t_uint256": {
        "encoding": "inplace",
        "label": "uint256",
        "numberOfBytes": "32"
      }
    }
  }
}