{
  "address": "0x5659AEc33753b6c53666aDC7cc974E5f6dF11930",
  "abi": [
    {
      "inputs": [
        {
          "internalType": "address",
          "name": "_token0",
          "type": "address"
        },
        {
          "internalType": "address",
          "name": "_token1",
          "type": "address"
        }
      ],
      "stateMutability": "nonpayable",
      "type": "constructor"
    },
    {
      "inputs": [
        {
          "components": [
            {
              "internalType": "bytes",
              "name": "data",
              "type": "bytes"
            }
          ],
          "internalType": "struct inEuint32",
          "name": "_amount0",
          "type": "tuple"
        },
        {
          "components": [
            {
              "internalType": "bytes",
              "name": "data",
              "type": "bytes"
            }
          ],
          "internalType": "struct inEuint32",
          "name": "_amount1",
          "type": "tuple"
        }
      ],
      "name": "addLiquidity",
      "outputs": [
        {
          "internalType": "uint256",
          "name": "shares",
          "type": "uint256"
        }
      ],
      "stateMutability": "nonpayable",
      "type": "function"
    },
    {
      "inputs": [
        {
          "internalType": "address",
          "name": "",
          "type": "address"
        }
      ],
      "name": "balanceOf",
      "outputs": [
        {
          "internalType": "uint256",
          "name": "",
          "type": "uint256"
        }
      ],
      "stateMutability": "view",
      "type": "function"
    },
    {
      "inputs": [
        {
          "components": [
            {
              "internalType": "bytes",
              "name": "data",
              "type": "bytes"
            }
          ],
          "internalType": "struct inEuint32",
          "name": "_shares",
          "type": "tuple"
        }
      ],
      "name": "removeLiquidity",
      "outputs": [
        {
          "internalType": "uint256",
          "name": "amount0",
          "type": "uint256"
        },
        {
          "internalType": "uint256",
          "name": "amount1",
          "type": "uint256"
        }
      ],
      "stateMutability": "nonpayable",
      "type": "function"
    },
    {
      "inputs": [],
      "name": "reserve0",
      "outputs": [
        {
          "internalType": "uint256",
          "name": "",
          "type": "uint256"
        }
      ],
      "stateMutability": "view",
      "type": "function"
    },
    {
      "inputs": [],
      "name": "reserve1",
      "outputs": [
        {
          "internalType": "uint256",
          "name": "",
          "type": "uint256"
        }
      ],
      "stateMutability": "view",
      "type": "function"
    },
    {
      "inputs": [
        {
          "internalType": "address",
          "name": "_tokenIn",
          "type": "address"
        },
        {
          "components": [
            {
              "internalType": "bytes",
              "name": "data",
              "type": "bytes"
            }
          ],
          "internalType": "struct inEuint32",
          "name": "_amountIn",
          "type": "tuple"
        }
      ],
      "name": "swap",
      "outputs": [
        {
          "internalType": "uint256",
          "name": "amountOut",
          "type": "uint256"
        }
      ],
      "stateMutability": "nonpayable",
      "type": "function"
    },
    {
      "inputs": [],
      "name": "token0",
      "outputs": [
        {
          "internalType": "contract IERC20",
          "name": "",
          "type": "address"
        }
      ],
      "stateMutability": "view",
      "type": "function"
    },
    {
      "inputs": [],
      "name": "token1",
      "outputs": [
        {
          "internalType": "contract IERC20",
          "name": "",
          "type": "address"
        }
      ],
      "stateMutability": "view",
      "type": "function"
    },
    {
      "inputs": [],
      "name": "totalSupply",
      "outputs": [
        {
          "internalType": "uint256",
          "name": "",
          "type": "uint256"
        }
      ],
      "stateMutability": "view",
      "type": "function"
    }
  ],
  "transactionHash": "0xaee59e316ab0030bb568f8e62e67304d01f5cbbab5b30b173ac0396ee25e3eda",
  "args": [
    "0x369B5466d3797f808b7b5C033d5175CdBcD8E9F0",
    "0x9f7c110794c259088Eaa22B608b508f968E0c6b7"
  ],
  "numDeployments": 1,
  "solcInputHash": "dc86c2f1b8826dc1a12bdefc9d5b4f43",
  "bytecode": "0x60c06040523480156200001157600080fd5b5060405162001fd838038062001fd8833981810160405281019062000037919062000111565b8173ffffffffffffffffffffffffffffffffffffffff1660808173ffffffffffffffffffffffffffffffffffffffff16815250508073ffffffffffffffffffffffffffffffffffffffff1660a08173ffffffffffffffffffffffffffffffffffffffff1681525050505062000158565b600080fd5b600073ffffffffffffffffffffffffffffffffffffffff82169050919050565b6000620000d982620000ac565b9050919050565b620000eb81620000cc565b8114620000f757600080fd5b50565b6000815190506200010b81620000e0565b92915050565b600080604083850312156200012b576200012a620000a7565b5b60006200013b85828601620000fa565b92505060206200014e85828601620000fa565b9150509250929050565b60805160a051611de3620001f56000396000818161030b0152818161057b015281816106ef015281816108d901528181610a1201528181610b4201528181610bb001528181610dc00152610e6c0152600081816101f10152818161026a015281816104e1015281816106510152818161083a015281816109bd01528181610ae601528181610b6301528181610b8f0152610d260152611de36000f3fe608060405234801561001057600080fd5b50600436106100935760003560e01c80635a76f25e116100665780635a76f25e146101225780635b18de5f1461014057806370a082311461017157806374bfd999146101a1578063d21220a7146101d157610093565b80630dfe16811461009857806318160ddd146100b6578063443cb4bc146100d457806352dc0291146100f2575b600080fd5b6100a06101ef565b6040516100ad9190611358565b60405180910390f35b6100be610213565b6040516100cb919061138c565b60405180910390f35b6100dc610219565b6040516100e9919061138c565b60405180910390f35b61010c600480360381019061010791906113df565b61021f565b604051610119919061138c565b60405180910390f35b61012a610620565b604051610137919061138c565b60405180910390f35b61015a60048036038101906101559190611457565b610626565b6040516101689291906114a0565b60405180910390f35b61018b60048036038101906101869190611507565b61097e565b604051610198919061138c565b60405180910390f35b6101bb60048036038101906101b69190611534565b610996565b6040516101c8919061138c565b60405180910390f35b6101d9610e6a565b6040516101e69190611358565b60405180910390f35b7f000000000000000000000000000000000000000000000000000000000000000081565b60025481565b60005481565b60008061023c6102378561023290611738565b610e8e565b610ea4565b63ffffffff169050600061026061025b8561025690611738565b610e8e565b610ea4565b63ffffffff1690507f000000000000000000000000000000000000000000000000000000000000000073ffffffffffffffffffffffffffffffffffffffff166323b872dd3330856040518463ffffffff1660e01b81526004016102c59392919061175a565b6020604051808303816000875af11580156102e4573d6000803e3d6000fd5b505050506040513d601f19601f8201168201806040525081019061030891906117c9565b507f000000000000000000000000000000000000000000000000000000000000000073ffffffffffffffffffffffffffffffffffffffff166323b872dd3330846040518463ffffffff1660e01b81526004016103669392919061175a565b6020604051808303816000875af1158015610385573d6000803e3d6000fd5b505050506040513d601f19601f820116820180604052508101906103a991906117c9565b506000805411806103bc57506000600154115b1561041e57816001546103cf9190611825565b816000546103dd9190611825565b1461041d576040517f08c379a0000000000000000000000000000000000000000000000000000000008152600401610414906118c4565b60405180910390fd5b5b6000600254036104435761043c81836104379190611825565b610f67565b925061048f565b60008054600254846104559190611825565b61045f9190611913565b90506000600154600254846104749190611825565b61047e9190611913565b905061048a8282610fe1565b945050505b600083116104d2576040517f08c379a00000000000000000000000000000000000000000000000000000000081526004016104c990611990565b60405180910390fd5b6104dc3384610ffb565b6106187f000000000000000000000000000000000000000000000000000000000000000073ffffffffffffffffffffffffffffffffffffffff166370a08231306040518263ffffffff1660e01b815260040161053891906119b0565b602060405180830381865afa158015610555573d6000803e3d6000fd5b505050506040513d601f19601f8201168201806040525081019061057991906119f7565b7f000000000000000000000000000000000000000000000000000000000000000073ffffffffffffffffffffffffffffffffffffffff166370a08231306040518263ffffffff1660e01b81526004016105d291906119b0565b602060405180830381865afa1580156105ef573d6000803e3d6000fd5b505050506040513d601f19601f8201168201806040525081019061061391906119f7565b61106e565b505092915050565b60015481565b60008060006106456106408561063b90611738565b610e8e565b610ea4565b63ffffffff16905060007f000000000000000000000000000000000000000000000000000000000000000073ffffffffffffffffffffffffffffffffffffffff166370a08231306040518263ffffffff1660e01b81526004016106a891906119b0565b602060405180830381865afa1580156106c5573d6000803e3d6000fd5b505050506040513d601f19601f820116820180604052508101906106e991906119f7565b905060007f000000000000000000000000000000000000000000000000000000000000000073ffffffffffffffffffffffffffffffffffffffff166370a08231306040518263ffffffff1660e01b815260040161074691906119b0565b602060405180830381865afa158015610763573d6000803e3d6000fd5b505050506040513d601f19601f8201168201806040525081019061078791906119f7565b905060025482846107989190611825565b6107a29190611913565b945060025481846107b39190611825565b6107bd9190611913565b93506000851180156107cf5750600084115b61080e576040517f08c379a000000000000000000000000000000000000000000000000000000000815260040161080590611a70565b60405180910390fd5b6108183384611080565b61083885836108279190611a90565b85836108339190611a90565b61106e565b7f000000000000000000000000000000000000000000000000000000000000000073ffffffffffffffffffffffffffffffffffffffff1663a9059cbb33876040518363ffffffff1660e01b8152600401610893929190611ac4565b6020604051808303816000875af11580156108b2573d6000803e3d6000fd5b505050506040513d601f19601f820116820180604052508101906108d691906117c9565b507f000000000000000000000000000000000000000000000000000000000000000073ffffffffffffffffffffffffffffffffffffffff1663a9059cbb33866040518363ffffffff1660e01b8152600401610932929190611ac4565b6020604051808303816000875af1158015610951573d6000803e3d6000fd5b505050506040513d601f19601f8201168201806040525081019061097591906117c9565b50505050915091565b60036020528060005260406000206000915090505481565b6000806109b36109ae846109a990611738565b610e8e565b610ea4565b63ffffffff1690507f000000000000000000000000000000000000000000000000000000000000000073ffffffffffffffffffffffffffffffffffffffff168473ffffffffffffffffffffffffffffffffffffffff161480610a6057507f000000000000000000000000000000000000000000000000000000000000000073ffffffffffffffffffffffffffffffffffffffff168473ffffffffffffffffffffffffffffffffffffffff16145b610a9f576040517f08c379a0000000000000000000000000000000000000000000000000000000008152600401610a9690611b39565b60405180910390fd5b60008111610ae2576040517f08c379a0000000000000000000000000000000000000000000000000000000008152600401610ad990611ba5565b60405180910390fd5b60007f000000000000000000000000000000000000000000000000000000000000000073ffffffffffffffffffffffffffffffffffffffff168573ffffffffffffffffffffffffffffffffffffffff1614905060008060008084610b8d577f00000000000000000000000000000000000000000000000000000000000000007f0000000000000000000000000000000000000000000000000000000000000000600154600054610bd6565b7f00000000000000000000000000000000000000000000000000000000000000007f00000000000000000000000000000000000000000000000000000000000000006000546001545b93509350935093508373ffffffffffffffffffffffffffffffffffffffff166323b872dd3330896040518463ffffffff1660e01b8152600401610c1b9392919061175a565b6020604051808303816000875af1158015610c3a573d6000803e3d6000fd5b505050506040513d601f19601f82011682018060405250810190610c5e91906117c9565b5060006103e86103e588610c729190611825565b610c7c9190611913565b90508083610c8a9190611bc5565b8183610c969190611825565b610ca09190611913565b97508373ffffffffffffffffffffffffffffffffffffffff1663a9059cbb338a6040518363ffffffff1660e01b8152600401610cdd929190611ac4565b6020604051808303816000875af1158015610cfc573d6000803e3d6000fd5b505050506040513d601f19601f82011682018060405250810190610d2091906117c9565b50610e5d7f000000000000000000000000000000000000000000000000000000000000000073ffffffffffffffffffffffffffffffffffffffff166370a08231306040518263ffffffff1660e01b8152600401610d7d91906119b0565b602060405180830381865afa158015610d9a573d6000803e3d6000fd5b505050506040513d601f19601f82011682018060405250810190610dbe91906119f7565b7f000000000000000000000000000000000000000000000000000000000000000073ffffffffffffffffffffffffffffffffffffffff166370a08231306040518263ffffffff1660e01b8152600401610e1791906119b0565b602060405180830381865afa158015610e34573d6000803e3d6000fd5b505050506040513d601f19601f82011682018060405250810190610e5891906119f7565b61106e565b5050505050505092915050565b7f000000000000000000000000000000000000000000000000000000000000000081565b6000610e9d82600001516110f3565b9050919050565b6000610eaf82611107565b610ec057610ebd6000611114565b91505b60008290506000610ed082611128565b90506000608073ffffffffffffffffffffffffffffffffffffffff166373cc01546002846040518363ffffffff1660e01b8152600401610f11929190611c94565b602060405180830381865afa158015610f2e573d6000803e3d6000fd5b505050506040513d601f19601f82011682018060405250810190610f5291906119f7565b9050610f5d81611185565b9350505050919050565b60006003821115610fce5781905060006001600284610f869190611913565b610f909190611bc5565b90505b81811015610fc8578091506002818285610fad9190611913565b610fb79190611bc5565b610fc19190611913565b9050610f93565b50610fdc565b60008214610fdb57600190505b5b919050565b600081831115610ff15781610ff3565b825b905092915050565b80600360008473ffffffffffffffffffffffffffffffffffffffff1673ffffffffffffffffffffffffffffffffffffffff168152602001908152602001600020600082825461104a9190611bc5565b9250508190555080600260008282546110639190611bc5565b925050819055505050565b81600081905550806001819055505050565b80600360008473ffffffffffffffffffffffffffffffffffffffff1673ffffffffffffffffffffffffffffffffffffffff16815260200190815260200160002060008282546110cf9190611a90565b9250508190555080600260008282546110e89190611a90565b925050819055505050565b600061110082600261118f565b9050919050565b6000808214159050919050565b6000611121826002611229565b9050919050565b6060602067ffffffffffffffff811115611145576111446115a6565b5b6040519080825280601f01601f1916602001820160405280156111775781602001600182028036833780820191505090505b509050816020820152919050565b6000819050919050565b60006060608073ffffffffffffffffffffffffffffffffffffffff16635fa55ca784866040518363ffffffff1660e01b81526004016111cf929190611c94565b600060405180830381865afa1580156111ec573d6000803e3d6000fd5b505050506040513d6000823e3d601f19601f820116820180604052508101906112159190611d34565b9050611220816112cb565b91505092915050565b60006060608073ffffffffffffffffffffffffffffffffffffffff166319e1c5c461125386611128565b856040518363ffffffff1660e01b8152600401611271929190611d7d565b600060405180830381865afa15801561128e573d6000803e3d6000fd5b505050506040513d6000823e3d601f19601f820116820180604052508101906112b79190611d34565b90506112c2816112cb565b91505092915050565b600060208201519050919050565b600073ffffffffffffffffffffffffffffffffffffffff82169050919050565b6000819050919050565b600061131e611319611314846112d9565b6112f9565b6112d9565b9050919050565b600061133082611303565b9050919050565b600061134282611325565b9050919050565b61135281611337565b82525050565b600060208201905061136d6000830184611349565b92915050565b6000819050919050565b61138681611373565b82525050565b60006020820190506113a1600083018461137d565b92915050565b6000604051905090565b600080fd5b600080fd5b600080fd5b6000602082840312156113d6576113d56113bb565b5b81905092915050565b600080604083850312156113f6576113f56113b1565b5b600083013567ffffffffffffffff811115611414576114136113b6565b5b611420858286016113c0565b925050602083013567ffffffffffffffff811115611441576114406113b6565b5b61144d858286016113c0565b9150509250929050565b60006020828403121561146d5761146c6113b1565b5b600082013567ffffffffffffffff81111561148b5761148a6113b6565b5b611497848285016113c0565b91505092915050565b60006040820190506114b5600083018561137d565b6114c2602083018461137d565b9392505050565b60006114d4826112d9565b9050919050565b6114e4816114c9565b81146114ef57600080fd5b50565b600081359050611501816114db565b92915050565b60006020828403121561151d5761151c6113b1565b5b600061152b848285016114f2565b91505092915050565b6000806040838503121561154b5761154a6113b1565b5b6000611559858286016114f2565b925050602083013567ffffffffffffffff81111561157a576115796113b6565b5b611586858286016113c0565b9150509250929050565b600080fd5b6000601f19601f8301169050919050565b7f4e487b7100000000000000000000000000000000000000000000000000000000600052604160045260246000fd5b6115de82611595565b810181811067ffffffffffffffff821117156115fd576115fc6115a6565b5b80604052505050565b60006116106113a7565b905061161c82826115d5565b919050565b600080fd5b600080fd5b600080fd5b600067ffffffffffffffff82111561164b5761164a6115a6565b5b61165482611595565b9050602081019050919050565b82818337600083830152505050565b600061168361167e84611630565b611606565b90508281526020810184848401111561169f5761169e61162b565b5b6116aa848285611661565b509392505050565b600082601f8301126116c7576116c6611626565b5b81356116d7848260208601611670565b91505092915050565b6000602082840312156116f6576116f5611590565b5b6117006020611606565b9050600082013567ffffffffffffffff8111156117205761171f611621565b5b61172c848285016116b2565b60008301525092915050565b600061174436836116e0565b9050919050565b611754816114c9565b82525050565b600060608201905061176f600083018661174b565b61177c602083018561174b565b611789604083018461137d565b949350505050565b60008115159050919050565b6117a681611791565b81146117b157600080fd5b50565b6000815190506117c38161179d565b92915050565b6000602082840312156117df576117de6113b1565b5b60006117ed848285016117b4565b91505092915050565b7f4e487b7100000000000000000000000000000000000000000000000000000000600052601160045260246000fd5b600061183082611373565b915061183b83611373565b925082820261184981611373565b915082820484148315176118605761185f6117f6565b5b5092915050565b600082825260208201905092915050565b7f78202f207920213d206478202f20647900000000000000000000000000000000600082015250565b60006118ae601083611867565b91506118b982611878565b602082019050919050565b600060208201905081810360008301526118dd816118a1565b9050919050565b7f4e487b7100000000000000000000000000000000000000000000000000000000600052601260045260246000fd5b600061191e82611373565b915061192983611373565b925082611939576119386118e4565b5b828204905092915050565b7f736861726573203d203000000000000000000000000000000000000000000000600082015250565b600061197a600a83611867565b915061198582611944565b602082019050919050565b600060208201905081810360008301526119a98161196d565b9050919050565b60006020820190506119c5600083018461174b565b92915050565b6119d481611373565b81146119df57600080fd5b50565b6000815190506119f1816119cb565b92915050565b600060208284031215611a0d57611a0c6113b1565b5b6000611a1b848285016119e2565b91505092915050565b7f616d6f756e7430206f7220616d6f756e7431203d203000000000000000000000600082015250565b6000611a5a601683611867565b9150611a6582611a24565b602082019050919050565b60006020820190508181036000830152611a8981611a4d565b9050919050565b6000611a9b82611373565b9150611aa683611373565b9250828203905081811115611abe57611abd6117f6565b5b92915050565b6000604082019050611ad9600083018561174b565b611ae6602083018461137d565b9392505050565b7f696e76616c696420746f6b656e00000000000000000000000000000000000000600082015250565b6000611b23600d83611867565b9150611b2e82611aed565b602082019050919050565b60006020820190508181036000830152611b5281611b16565b9050919050565b7f616d6f756e7420696e203d203000000000000000000000000000000000000000600082015250565b6000611b8f600d83611867565b9150611b9a82611b59565b602082019050919050565b60006020820190508181036000830152611bbe81611b82565b9050919050565b6000611bd082611373565b9150611bdb83611373565b9250828201905080821115611bf357611bf26117f6565b5b92915050565b600060ff82169050919050565b611c0f81611bf9565b82525050565b600081519050919050565b600082825260208201905092915050565b60005b83811015611c4f578082015181840152602081019050611c34565b60008484015250505050565b6000611c6682611c15565b611c708185611c20565b9350611c80818560208601611c31565b611c8981611595565b840191505092915050565b6000604082019050611ca96000830185611c06565b8181036020830152611cbb8184611c5b565b90509392505050565b6000611cd7611cd284611630565b611606565b905082815260208101848484011115611cf357611cf261162b565b5b611cfe848285611c31565b509392505050565b600082601f830112611d1b57611d1a611626565b5b8151611d2b848260208601611cc4565b91505092915050565b600060208284031215611d4a57611d496113b1565b5b600082015167ffffffffffffffff811115611d6857611d676113b6565b5b611d7484828501611d06565b91505092915050565b60006040820190508181036000830152611d978185611c5b565b9050611da66020830184611c06565b939250505056fea26469706673582212206941c8b4d758cbf6eec3cd2ca78b14c795253682072a03ebc55b62f51407418064736f6c63430008140033",
  "devdoc": {
    "kind": "dev",
    "methods": {},
    "version": 1
  },
  "userdoc": {
    "kind": "user",
    "methods": {},
    "version": 1
  },
  "storageLayout": {
    "storage": [
      {
        "astId": 8932,
        "contract": "contracts/CPAMMTap.sol:CPAMM",
        "label": "reserve0",
        "offset": 0,
        "slot": "0",
        "type": "t_uint256"
      },
      {
        "astId": 8934,
        "contract": "contracts/CPAMMTap.sol:CPAMM",
        "label": "reserve1",
        "offset": 0,
        "slot": "1",
        "type": "t_uint256"
      },
      {
        "astId": 8936,
        "contract": "contracts/CPAMMTap.sol:CPAMM",
        "label": "totalSupply",
        "offset": 0,
        "slot": "2",
        "type": "t_uint256"
      },
      {
        "astId": 8940,
        "contract": "contracts/CPAMMTap.sol:CPAMM",
        "label": "balanceOf",
        "offset": 0,
        "slot": "3",
        "type": "t_mapping(t_address,t_uint256)"
      }
    ],
    "types": {
      "t_address": {
        "encoding": "inplace",
        "label": "address",
        "numberOfBytes": "20"
      },
      "t_mapping(t_address,t_uint256)": {
        "encoding": "mapping",
        "key": "t_address",
        "label": "mapping(address => uint256)",
        "numberOfBytes": "32",
        "value": "t_uint256"
      },
      "t_uint256": {
        "encoding": "inplace",
        "label": "uint256",
        "numberOfBytes": "32"
      }
    }
  }
}