{
  "address": "0x326F1690f7B6294CEfDf361236C7E6e0b8CB474F",
  "abi": [
    {
      "inputs": [],
      "stateMutability": "nonpayable",
      "type": "constructor"
    },
    {
      "inputs": [
        {
          "components": [
            {
              "internalType": "bytes",
              "name": "data",
              "type": "bytes"
            }
          ],
          "internalType": "struct inEuint32",
          "name": "_amount0",
          "type": "tuple"
        },
        {
          "components": [
            {
              "internalType": "bytes",
              "name": "data",
              "type": "bytes"
            }
          ],
          "internalType": "struct inEuint32",
          "name": "_amount1",
          "type": "tuple"
        }
      ],
      "name": "addLiquidity",
      "outputs": [
        {
          "internalType": "uint256",
          "name": "shares",
          "type": "uint256"
        }
      ],
      "stateMutability": "nonpayable",
      "type": "function"
    },
    {
      "inputs": [
        {
          "internalType": "address",
          "name": "",
          "type": "address"
        }
      ],
      "name": "balanceOf",
      "outputs": [
        {
          "internalType": "uint256",
          "name": "",
          "type": "uint256"
        }
      ],
      "stateMutability": "view",
      "type": "function"
    },
    {
      "inputs": [],
      "name": "factory",
      "outputs": [
        {
          "internalType": "address",
          "name": "",
          "type": "address"
        }
      ],
      "stateMutability": "view",
      "type": "function"
    },
    {
      "inputs": [
        {
          "internalType": "address",
          "name": "_token0",
          "type": "address"
        },
        {
          "internalType": "address",
          "name": "_token1",
          "type": "address"
        }
      ],
      "name": "initialize",
      "outputs": [],
      "stateMutability": "nonpayable",
      "type": "function"
    },
    {
      "inputs": [
        {
          "components": [
            {
              "internalType": "bytes",
              "name": "data",
              "type": "bytes"
            }
          ],
          "internalType": "struct inEuint32",
          "name": "_shares",
          "type": "tuple"
        }
      ],
      "name": "removeLiquidity",
      "outputs": [
        {
          "internalType": "uint256",
          "name": "amount0",
          "type": "uint256"
        },
        {
          "internalType": "uint256",
          "name": "amount1",
          "type": "uint256"
        }
      ],
      "stateMutability": "nonpayable",
      "type": "function"
    },
    {
      "inputs": [],
      "name": "reserve0",
      "outputs": [
        {
          "internalType": "uint256",
          "name": "",
          "type": "uint256"
        }
      ],
      "stateMutability": "view",
      "type": "function"
    },
    {
      "inputs": [],
      "name": "reserve1",
      "outputs": [
        {
          "internalType": "uint256",
          "name": "",
          "type": "uint256"
        }
      ],
      "stateMutability": "view",
      "type": "function"
    },
    {
      "inputs": [
        {
          "internalType": "address",
          "name": "_tokenIn",
          "type": "address"
        },
        {
          "components": [
            {
              "internalType": "bytes",
              "name": "data",
              "type": "bytes"
            }
          ],
          "internalType": "struct inEuint32",
          "name": "_amountIn",
          "type": "tuple"
        }
      ],
      "name": "swap",
      "outputs": [
        {
          "internalType": "uint256",
          "name": "amountOut",
          "type": "uint256"
        }
      ],
      "stateMutability": "nonpayable",
      "type": "function"
    },
    {
      "inputs": [],
      "name": "token0",
      "outputs": [
        {
          "internalType": "contract IERC20",
          "name": "",
          "type": "address"
        }
      ],
      "stateMutability": "view",
      "type": "function"
    },
    {
      "inputs": [],
      "name": "token1",
      "outputs": [
        {
          "internalType": "contract IERC20",
          "name": "",
          "type": "address"
        }
      ],
      "stateMutability": "view",
      "type": "function"
    },
    {
      "inputs": [],
      "name": "totalSupply",
      "outputs": [
        {
          "internalType": "uint256",
          "name": "",
          "type": "uint256"
        }
      ],
      "stateMutability": "view",
      "type": "function"
    }
  ],
  "transactionHash": "0xb2c37d9d76048c64bfbf19de0c73df3b3d6ee3bab3bdf09680b4125d36593ec6",
  "args": [],
  "numDeployments": 1,
  "solcInputHash": "23dcad42fc42cc18acc8a11fcd398616",
  "bytecode": "0x608060405234801561001057600080fd5b5033600260006101000a81548173ffffffffffffffffffffffffffffffffffffffff021916908373ffffffffffffffffffffffffffffffffffffffff160217905550612064806100616000396000f3fe608060405234801561001057600080fd5b50600436106100a95760003560e01c80635a76f25e116100715780635a76f25e146101545780635b18de5f1461017257806370a08231146101a357806374bfd999146101d3578063c45a015514610203578063d21220a714610221576100a9565b80630dfe1681146100ae57806318160ddd146100cc578063443cb4bc146100ea578063485cc9551461010857806352dc029114610124575b600080fd5b6100b661023f565b6040516100c3919061152d565b60405180910390f35b6100d4610263565b6040516100e19190611561565b60405180910390f35b6100f2610269565b6040516100ff9190611561565b60405180910390f35b610122600480360381019061011d91906115ce565b61026f565b005b61013e60048036038101906101399190611632565b610384565b60405161014b9190611561565b60405180910390f35b61015c6107b3565b6040516101699190611561565b60405180910390f35b61018c600480360381019061018791906116aa565b6107b9565b60405161019a9291906116f3565b60405180910390f35b6101bd60048036038101906101b8919061171c565b610b1c565b6040516101ca9190611561565b60405180910390f35b6101ed60048036038101906101e89190611749565b610b34565b6040516101fa9190611561565b60405180910390f35b61020b611017565b60405161021891906117b4565b60405180910390f35b61022961103d565b604051610236919061152d565b60405180910390f35b60008054906101000a900473ffffffffffffffffffffffffffffffffffffffff1681565b60055481565b60035481565b600260009054906101000a900473ffffffffffffffffffffffffffffffffffffffff1673ffffffffffffffffffffffffffffffffffffffff163373ffffffffffffffffffffffffffffffffffffffff16146102ff576040517f08c379a00000000000000000000000000000000000000000000000000000000081526004016102f69061182c565b60405180910390fd5b816000806101000a81548173ffffffffffffffffffffffffffffffffffffffff021916908373ffffffffffffffffffffffffffffffffffffffff16021790555080600160006101000a81548173ffffffffffffffffffffffffffffffffffffffff021916908373ffffffffffffffffffffffffffffffffffffffff1602179055505050565b60008061039984610394906119f4565b611063565b905060006103af846103aa906119f4565b611063565b905060006103bc83611079565b63ffffffff16905060006103cf83611079565b63ffffffff16905060008060009054906101000a900473ffffffffffffffffffffffffffffffffffffffff1673ffffffffffffffffffffffffffffffffffffffff166323b872dd3330866040518463ffffffff1660e01b815260040161043793929190611a07565b6020604051808303816000875af1158015610456573d6000803e3d6000fd5b505050506040513d601f19601f8201168201806040525081019061047a9190611a76565b90506000600160009054906101000a900473ffffffffffffffffffffffffffffffffffffffff1673ffffffffffffffffffffffffffffffffffffffff166323b872dd3330866040518463ffffffff1660e01b81526004016104dd93929190611a07565b6020604051808303816000875af11580156104fc573d6000803e3d6000fd5b505050506040513d601f19601f820116820180604052508101906105209190611a76565b905081801561052c5750805b61053557600080fd5b6000600354118061054857506000600454115b156105aa578360045461055b9190611ad2565b836003546105699190611ad2565b146105a9576040517f08c379a00000000000000000000000000000000000000000000000000000000081526004016105a090611b60565b60405180910390fd5b5b6000600554036105cf576105c883856105c39190611ad2565b61113c565b965061061c565b6000600354600554866105e29190611ad2565b6105ec9190611baf565b90506000600454600554866106019190611ad2565b61060b9190611baf565b905061061782826111b6565b985050505b6000871161065f576040517f08c379a000000000000000000000000000000000000000000000000000000000815260040161065690611c2c565b60405180910390fd5b61066933886111d0565b6107a760008054906101000a900473ffffffffffffffffffffffffffffffffffffffff1673ffffffffffffffffffffffffffffffffffffffff166370a08231306040518263ffffffff1660e01b81526004016106c591906117b4565b602060405180830381865afa1580156106e2573d6000803e3d6000fd5b505050506040513d601f19601f820116820180604052508101906107069190611c78565b600160009054906101000a900473ffffffffffffffffffffffffffffffffffffffff1673ffffffffffffffffffffffffffffffffffffffff166370a08231306040518263ffffffff1660e01b815260040161076191906117b4565b602060405180830381865afa15801561077e573d6000803e3d6000fd5b505050506040513d601f19601f820116820180604052508101906107a29190611c78565b611243565b50505050505092915050565b60045481565b60008060006107d0846107cb906119f4565b611063565b905060006107dd82611079565b63ffffffff16905060008060009054906101000a900473ffffffffffffffffffffffffffffffffffffffff1673ffffffffffffffffffffffffffffffffffffffff166370a08231306040518263ffffffff1660e01b815260040161084191906117b4565b602060405180830381865afa15801561085e573d6000803e3d6000fd5b505050506040513d601f19601f820116820180604052508101906108829190611c78565b90506000600160009054906101000a900473ffffffffffffffffffffffffffffffffffffffff1673ffffffffffffffffffffffffffffffffffffffff166370a08231306040518263ffffffff1660e01b81526004016108e191906117b4565b602060405180830381865afa1580156108fe573d6000803e3d6000fd5b505050506040513d601f19601f820116820180604052508101906109229190611c78565b905060055482846109339190611ad2565b61093d9190611baf565b9550600554818461094e9190611ad2565b6109589190611baf565b945060008611801561096a5750600085115b6109a9576040517f08c379a00000000000000000000000000000000000000000000000000000000081526004016109a090611cf1565b60405180910390fd5b6109b33384611255565b6109d386836109c29190611d11565b86836109ce9190611d11565b611243565b60008054906101000a900473ffffffffffffffffffffffffffffffffffffffff1673ffffffffffffffffffffffffffffffffffffffff1663a9059cbb33886040518363ffffffff1660e01b8152600401610a2e929190611d45565b6020604051808303816000875af1158015610a4d573d6000803e3d6000fd5b505050506040513d601f19601f82011682018060405250810190610a719190611a76565b50600160009054906101000a900473ffffffffffffffffffffffffffffffffffffffff1673ffffffffffffffffffffffffffffffffffffffff1663a9059cbb33876040518363ffffffff1660e01b8152600401610acf929190611d45565b6020604051808303816000875af1158015610aee573d6000803e3d6000fd5b505050506040513d601f19601f82011682018060405250810190610b129190611a76565b5050505050915091565b60066020528060005260406000206000915090505481565b600080610b4983610b44906119f4565b611063565b90506000610b5682611079565b63ffffffff16905060008054906101000a900473ffffffffffffffffffffffffffffffffffffffff1673ffffffffffffffffffffffffffffffffffffffff168573ffffffffffffffffffffffffffffffffffffffff161480610c055750600160009054906101000a900473ffffffffffffffffffffffffffffffffffffffff1673ffffffffffffffffffffffffffffffffffffffff168573ffffffffffffffffffffffffffffffffffffffff16145b610c44576040517f08c379a0000000000000000000000000000000000000000000000000000000008152600401610c3b90611dba565b60405180910390fd5b60008111610c87576040517f08c379a0000000000000000000000000000000000000000000000000000000008152600401610c7e90611e26565b60405180910390fd5b60008060009054906101000a900473ffffffffffffffffffffffffffffffffffffffff1673ffffffffffffffffffffffffffffffffffffffff168673ffffffffffffffffffffffffffffffffffffffff1614905060008060008084610d3557600160009054906101000a900473ffffffffffffffffffffffffffffffffffffffff1660008054906101000a900473ffffffffffffffffffffffffffffffffffffffff16600454600354610d80565b60008054906101000a900473ffffffffffffffffffffffffffffffffffffffff16600160009054906101000a900473ffffffffffffffffffffffffffffffffffffffff166003546004545b93509350935093508373ffffffffffffffffffffffffffffffffffffffff166323b872dd3330896040518463ffffffff1660e01b8152600401610dc593929190611a07565b6020604051808303816000875af1158015610de4573d6000803e3d6000fd5b505050506040513d601f19601f82011682018060405250810190610e089190611a76565b5060006103e86103e588610e1c9190611ad2565b610e269190611baf565b90508083610e349190611e46565b8183610e409190611ad2565b610e4a9190611baf565b98508373ffffffffffffffffffffffffffffffffffffffff1663a9059cbb338b6040518363ffffffff1660e01b8152600401610e87929190611d45565b6020604051808303816000875af1158015610ea6573d6000803e3d6000fd5b505050506040513d601f19601f82011682018060405250810190610eca9190611a76565b5061100960008054906101000a900473ffffffffffffffffffffffffffffffffffffffff1673ffffffffffffffffffffffffffffffffffffffff166370a08231306040518263ffffffff1660e01b8152600401610f2791906117b4565b602060405180830381865afa158015610f44573d6000803e3d6000fd5b505050506040513d601f19601f82011682018060405250810190610f689190611c78565b600160009054906101000a900473ffffffffffffffffffffffffffffffffffffffff1673ffffffffffffffffffffffffffffffffffffffff166370a08231306040518263ffffffff1660e01b8152600401610fc391906117b4565b602060405180830381865afa158015610fe0573d6000803e3d6000fd5b505050506040513d601f19601f820116820180604052508101906110049190611c78565b611243565b505050505050505092915050565b600260009054906101000a900473ffffffffffffffffffffffffffffffffffffffff1681565b600160009054906101000a900473ffffffffffffffffffffffffffffffffffffffff1681565b600061107282600001516112c8565b9050919050565b6000611084826112dc565b6110955761109260006112e9565b91505b600082905060006110a5826112fd565b90506000608073ffffffffffffffffffffffffffffffffffffffff166373cc01546002846040518363ffffffff1660e01b81526004016110e6929190611f15565b602060405180830381865afa158015611103573d6000803e3d6000fd5b505050506040513d601f19601f820116820180604052508101906111279190611c78565b90506111328161135a565b9350505050919050565b600060038211156111a3578190506000600160028461115b9190611baf565b6111659190611e46565b90505b8181101561119d5780915060028182856111829190611baf565b61118c9190611e46565b6111969190611baf565b9050611168565b506111b1565b600082146111b057600190505b5b919050565b6000818311156111c657816111c8565b825b905092915050565b80600660008473ffffffffffffffffffffffffffffffffffffffff1673ffffffffffffffffffffffffffffffffffffffff168152602001908152602001600020600082825461121f9190611e46565b9250508190555080600560008282546112389190611e46565b925050819055505050565b81600381905550806004819055505050565b80600660008473ffffffffffffffffffffffffffffffffffffffff1673ffffffffffffffffffffffffffffffffffffffff16815260200190815260200160002060008282546112a49190611d11565b9250508190555080600560008282546112bd9190611d11565b925050819055505050565b60006112d5826002611364565b9050919050565b6000808214159050919050565b60006112f68260026113fe565b9050919050565b6060602067ffffffffffffffff81111561131a57611319611862565b5b6040519080825280601f01601f19166020018201604052801561134c5781602001600182028036833780820191505090505b509050816020820152919050565b6000819050919050565b60006060608073ffffffffffffffffffffffffffffffffffffffff16635fa55ca784866040518363ffffffff1660e01b81526004016113a4929190611f15565b600060405180830381865afa1580156113c1573d6000803e3d6000fd5b505050506040513d6000823e3d601f19601f820116820180604052508101906113ea9190611fb5565b90506113f5816114a0565b91505092915050565b60006060608073ffffffffffffffffffffffffffffffffffffffff166319e1c5c4611428866112fd565b856040518363ffffffff1660e01b8152600401611446929190611ffe565b600060405180830381865afa158015611463573d6000803e3d6000fd5b505050506040513d6000823e3d601f19601f8201168201806040525081019061148c9190611fb5565b9050611497816114a0565b91505092915050565b600060208201519050919050565b600073ffffffffffffffffffffffffffffffffffffffff82169050919050565b6000819050919050565b60006114f36114ee6114e9846114ae565b6114ce565b6114ae565b9050919050565b6000611505826114d8565b9050919050565b6000611517826114fa565b9050919050565b6115278161150c565b82525050565b6000602082019050611542600083018461151e565b92915050565b6000819050919050565b61155b81611548565b82525050565b60006020820190506115766000830184611552565b92915050565b6000604051905090565b600080fd5b600080fd5b600061159b826114ae565b9050919050565b6115ab81611590565b81146115b657600080fd5b50565b6000813590506115c8816115a2565b92915050565b600080604083850312156115e5576115e4611586565b5b60006115f3858286016115b9565b9250506020611604858286016115b9565b9150509250929050565b600080fd5b6000602082840312156116295761162861160e565b5b81905092915050565b6000806040838503121561164957611648611586565b5b600083013567ffffffffffffffff8111156116675761166661158b565b5b61167385828601611613565b925050602083013567ffffffffffffffff8111156116945761169361158b565b5b6116a085828601611613565b9150509250929050565b6000602082840312156116c0576116bf611586565b5b600082013567ffffffffffffffff8111156116de576116dd61158b565b5b6116ea84828501611613565b91505092915050565b60006040820190506117086000830185611552565b6117156020830184611552565b9392505050565b60006020828403121561173257611731611586565b5b6000611740848285016115b9565b91505092915050565b600080604083850312156117605761175f611586565b5b600061176e858286016115b9565b925050602083013567ffffffffffffffff81111561178f5761178e61158b565b5b61179b85828601611613565b9150509250929050565b6117ae81611590565b82525050565b60006020820190506117c960008301846117a5565b92915050565b600082825260208201905092915050565b7f4f6e6c7920466163746f72792063616e2063616c6c2074686973000000000000600082015250565b6000611816601a836117cf565b9150611821826117e0565b602082019050919050565b6000602082019050818103600083015261184581611809565b9050919050565b600080fd5b6000601f19601f8301169050919050565b7f4e487b7100000000000000000000000000000000000000000000000000000000600052604160045260246000fd5b61189a82611851565b810181811067ffffffffffffffff821117156118b9576118b8611862565b5b80604052505050565b60006118cc61157c565b90506118d88282611891565b919050565b600080fd5b600080fd5b600080fd5b600067ffffffffffffffff82111561190757611906611862565b5b61191082611851565b9050602081019050919050565b82818337600083830152505050565b600061193f61193a846118ec565b6118c2565b90508281526020810184848401111561195b5761195a6118e7565b5b61196684828561191d565b509392505050565b600082601f830112611983576119826118e2565b5b813561199384826020860161192c565b91505092915050565b6000602082840312156119b2576119b161184c565b5b6119bc60206118c2565b9050600082013567ffffffffffffffff8111156119dc576119db6118dd565b5b6119e88482850161196e565b60008301525092915050565b6000611a00368361199c565b9050919050565b6000606082019050611a1c60008301866117a5565b611a2960208301856117a5565b611a366040830184611552565b949350505050565b60008115159050919050565b611a5381611a3e565b8114611a5e57600080fd5b50565b600081519050611a7081611a4a565b92915050565b600060208284031215611a8c57611a8b611586565b5b6000611a9a84828501611a61565b91505092915050565b7f4e487b7100000000000000000000000000000000000000000000000000000000600052601160045260246000fd5b6000611add82611548565b9150611ae883611548565b9250828202611af681611548565b91508282048414831517611b0d57611b0c611aa3565b5b5092915050565b7f78202f207920213d206478202f20647900000000000000000000000000000000600082015250565b6000611b4a6010836117cf565b9150611b5582611b14565b602082019050919050565b60006020820190508181036000830152611b7981611b3d565b9050919050565b7f4e487b7100000000000000000000000000000000000000000000000000000000600052601260045260246000fd5b6000611bba82611548565b9150611bc583611548565b925082611bd557611bd4611b80565b5b828204905092915050565b7f736861726573203d203000000000000000000000000000000000000000000000600082015250565b6000611c16600a836117cf565b9150611c2182611be0565b602082019050919050565b60006020820190508181036000830152611c4581611c09565b9050919050565b611c5581611548565b8114611c6057600080fd5b50565b600081519050611c7281611c4c565b92915050565b600060208284031215611c8e57611c8d611586565b5b6000611c9c84828501611c63565b91505092915050565b7f616d6f756e7430206f7220616d6f756e7431203d203000000000000000000000600082015250565b6000611cdb6016836117cf565b9150611ce682611ca5565b602082019050919050565b60006020820190508181036000830152611d0a81611cce565b9050919050565b6000611d1c82611548565b9150611d2783611548565b9250828203905081811115611d3f57611d3e611aa3565b5b92915050565b6000604082019050611d5a60008301856117a5565b611d676020830184611552565b9392505050565b7f696e76616c696420746f6b656e00000000000000000000000000000000000000600082015250565b6000611da4600d836117cf565b9150611daf82611d6e565b602082019050919050565b60006020820190508181036000830152611dd381611d97565b9050919050565b7f616d6f756e7420696e203d203000000000000000000000000000000000000000600082015250565b6000611e10600d836117cf565b9150611e1b82611dda565b602082019050919050565b60006020820190508181036000830152611e3f81611e03565b9050919050565b6000611e5182611548565b9150611e5c83611548565b9250828201905080821115611e7457611e73611aa3565b5b92915050565b600060ff82169050919050565b611e9081611e7a565b82525050565b600081519050919050565b600082825260208201905092915050565b60005b83811015611ed0578082015181840152602081019050611eb5565b60008484015250505050565b6000611ee782611e96565b611ef18185611ea1565b9350611f01818560208601611eb2565b611f0a81611851565b840191505092915050565b6000604082019050611f2a6000830185611e87565b8181036020830152611f3c8184611edc565b90509392505050565b6000611f58611f53846118ec565b6118c2565b905082815260208101848484011115611f7457611f736118e7565b5b611f7f848285611eb2565b509392505050565b600082601f830112611f9c57611f9b6118e2565b5b8151611fac848260208601611f45565b91505092915050565b600060208284031215611fcb57611fca611586565b5b600082015167ffffffffffffffff811115611fe957611fe861158b565b5b611ff584828501611f87565b91505092915050565b600060408201905081810360008301526120188185611edc565b90506120276020830184611e87565b939250505056fea2646970667358221220f0d3dae9a12972cbdd2b001552fbb6b0f3b37932947350bdc6cc633f5cb1a8aa64736f6c63430008130033",
  "devdoc": {
    "kind": "dev",
    "methods": {},
    "version": 1
  },
  "userdoc": {
    "kind": "user",
    "methods": {},
    "version": 1
  },
  "storageLayout": {
    "storage": [
      {
        "astId": 8697,
        "contract": "contracts/EncryptedPairFHE.sol:EncryptedPair",
        "label": "token0",
        "offset": 0,
        "slot": "0",
        "type": "t_contract(IERC20)9528"
      },
      {
        "astId": 8700,
        "contract": "contracts/EncryptedPairFHE.sol:EncryptedPair",
        "label": "token1",
        "offset": 0,
        "slot": "1",
        "type": "t_contract(IERC20)9528"
      },
      {
        "astId": 8702,
        "contract": "contracts/EncryptedPairFHE.sol:EncryptedPair",
        "label": "factory",
        "offset": 0,
        "slot": "2",
        "type": "t_address"
      },
      {
        "astId": 8704,
        "contract": "contracts/EncryptedPairFHE.sol:EncryptedPair",
        "label": "reserve0",
        "offset": 0,
        "slot": "3",
        "type": "t_uint256"
      },
      {
        "astId": 8706,
        "contract": "contracts/EncryptedPairFHE.sol:EncryptedPair",
        "label": "reserve1",
        "offset": 0,
        "slot": "4",
        "type": "t_uint256"
      },
      {
        "astId": 8708,
        "contract": "contracts/EncryptedPairFHE.sol:EncryptedPair",
        "label": "totalSupply",
        "offset": 0,
        "slot": "5",
        "type": "t_uint256"
      },
      {
        "astId": 8712,
        "contract": "contracts/EncryptedPairFHE.sol:EncryptedPair",
        "label": "balanceOf",
        "offset": 0,
        "slot": "6",
        "type": "t_mapping(t_address,t_uint256)"
      }
    ],
    "types": {
      "t_address": {
        "encoding": "inplace",
        "label": "address",
        "numberOfBytes": "20"
      },
      "t_contract(IERC20)9528": {
        "encoding": "inplace",
        "label": "contract IERC20",
        "numberOfBytes": "20"
      },
      "t_mapping(t_address,t_uint256)": {
        "encoding": "mapping",
        "key": "t_address",
        "label": "mapping(address => uint256)",
        "numberOfBytes": "32",
        "value": "t_uint256"
      },
      "t_uint256": {
        "encoding": "inplace",
        "label": "uint256",
        "numberOfBytes": "32"
      }
    }
  }
}