{
  "address": "0x1f963AE34BB6DAf6F5c04A2f2121E6e065456f66",
  "abi": [
    {
      "anonymous": false,
      "inputs": [
        {
          "indexed": true,
          "internalType": "address",
          "name": "token0",
          "type": "address"
        },
        {
          "indexed": true,
          "internalType": "address",
          "name": "token1",
          "type": "address"
        },
        {
          "indexed": false,
          "internalType": "address",
          "name": "pair",
          "type": "address"
        },
        {
          "indexed": false,
          "internalType": "uint256",
          "name": "",
          "type": "uint256"
        }
      ],
      "name": "PairCreated",
      "type": "event"
    },
    {
      "inputs": [
        {
          "internalType": "uint256",
          "name": "",
          "type": "uint256"
        }
      ],
      "name": "allPairs",
      "outputs": [
        {
          "internalType": "address",
          "name": "",
          "type": "address"
        }
      ],
      "stateMutability": "view",
      "type": "function"
    },
    {
      "inputs": [],
      "name": "allPairsLength",
      "outputs": [
        {
          "internalType": "uint256",
          "name": "",
          "type": "uint256"
        }
      ],
      "stateMutability": "view",
      "type": "function"
    },
    {
      "inputs": [
        {
          "internalType": "address",
          "name": "tokenA",
          "type": "address"
        },
        {
          "internalType": "address",
          "name": "tokenB",
          "type": "address"
        }
      ],
      "name": "createPair",
      "outputs": [
        {
          "internalType": "address",
          "name": "pair",
          "type": "address"
        }
      ],
      "stateMutability": "nonpayable",
      "type": "function"
    },
    {
      "inputs": [
        {
          "internalType": "address",
          "name": "",
          "type": "address"
        },
        {
          "internalType": "address",
          "name": "",
          "type": "address"
        }
      ],
      "name": "getPair",
      "outputs": [
        {
          "internalType": "address",
          "name": "",
          "type": "address"
        }
      ],
      "stateMutability": "view",
      "type": "function"
    }
  ],
  "transactionHash": "0x5f145fad0824ec577819e966145960c869d4bf4c7c746cbd1401585520e09fb3",
  "args": [],
  "numDeployments": 2,
  "solcInputHash": "eae7b09071a5b1f9b8ced4fb2508bcb2",
  "bytecode": "0x608060405234801561001057600080fd5b50612b5c806100206000396000f3fe608060405234801561001057600080fd5b506004361061004c5760003560e01c80631e3dd18b14610051578063574f2ba314610081578063c9c653961461009f578063e6a43905146100cf575b600080fd5b61006b6004803603810190610066919061071d565b6100ff565b604051610078919061078b565b60405180910390f35b61008961013e565b60405161009691906107b5565b60405180910390f35b6100b960048036038101906100b491906107fc565b61014b565b6040516100c6919061078b565b60405180910390f35b6100e960048036038101906100e491906107fc565b610693565b6040516100f6919061078b565b60405180910390f35b6001818154811061010f57600080fd5b906000526020600020016000915054906101000a900473ffffffffffffffffffffffffffffffffffffffff1681565b6000600180549050905090565b60008173ffffffffffffffffffffffffffffffffffffffff168373ffffffffffffffffffffffffffffffffffffffff16036101bb576040517f08c379a00000000000000000000000000000000000000000000000000000000081526004016101b290610899565b60405180910390fd5b6000808373ffffffffffffffffffffffffffffffffffffffff168573ffffffffffffffffffffffffffffffffffffffff16106101f85783856101fb565b84845b91509150600073ffffffffffffffffffffffffffffffffffffffff168273ffffffffffffffffffffffffffffffffffffffff160361026e576040517f08c379a000000000000000000000000000000000000000000000000000000000815260040161026590610905565b60405180910390fd5b600073ffffffffffffffffffffffffffffffffffffffff166000808473ffffffffffffffffffffffffffffffffffffffff1673ffffffffffffffffffffffffffffffffffffffff16815260200190815260200160002060008373ffffffffffffffffffffffffffffffffffffffff1673ffffffffffffffffffffffffffffffffffffffff16815260200190815260200160002060009054906101000a900473ffffffffffffffffffffffffffffffffffffffff1673ffffffffffffffffffffffffffffffffffffffff1614610378576040517f08c379a000000000000000000000000000000000000000000000000000000000815260040161036f90610971565b60405180910390fd5b60006040518060200161038a906106d5565b6020820181038252601f19601f820116604052509050600083836040516020016103b59291906109d9565b604051602081830303815290604052805190602001209050808251602084016000f594508473ffffffffffffffffffffffffffffffffffffffff1663485cc95585856040518363ffffffff1660e01b8152600401610414929190610a05565b600060405180830381600087803b15801561042e57600080fd5b505af1158015610442573d6000803e3d6000fd5b50505050846000808673ffffffffffffffffffffffffffffffffffffffff1673ffffffffffffffffffffffffffffffffffffffff16815260200190815260200160002060008573ffffffffffffffffffffffffffffffffffffffff1673ffffffffffffffffffffffffffffffffffffffff16815260200190815260200160002060006101000a81548173ffffffffffffffffffffffffffffffffffffffff021916908373ffffffffffffffffffffffffffffffffffffffff160217905550846000808573ffffffffffffffffffffffffffffffffffffffff1673ffffffffffffffffffffffffffffffffffffffff16815260200190815260200160002060008673ffffffffffffffffffffffffffffffffffffffff1673ffffffffffffffffffffffffffffffffffffffff16815260200190815260200160002060006101000a81548173ffffffffffffffffffffffffffffffffffffffff021916908373ffffffffffffffffffffffffffffffffffffffff1602179055506001859080600181540180825580915050600190039060005260206000200160009091909190916101000a81548173ffffffffffffffffffffffffffffffffffffffff021916908373ffffffffffffffffffffffffffffffffffffffff1602179055508273ffffffffffffffffffffffffffffffffffffffff168473ffffffffffffffffffffffffffffffffffffffff167f0d3648bd0f6ba80134a33ba9275ac585d9d315f0ad8355cddefde31afa28d0e987600180549050604051610681929190610a2e565b60405180910390a35050505092915050565b60006020528160005260406000206020528060005260406000206000915091509054906101000a900473ffffffffffffffffffffffffffffffffffffffff1681565b6120cf80610a5883390190565b600080fd5b6000819050919050565b6106fa816106e7565b811461070557600080fd5b50565b600081359050610717816106f1565b92915050565b600060208284031215610733576107326106e2565b5b600061074184828501610708565b91505092915050565b600073ffffffffffffffffffffffffffffffffffffffff82169050919050565b60006107758261074a565b9050919050565b6107858161076a565b82525050565b60006020820190506107a0600083018461077c565b92915050565b6107af816106e7565b82525050565b60006020820190506107ca60008301846107a6565b92915050565b6107d98161076a565b81146107e457600080fd5b50565b6000813590506107f6816107d0565b92915050565b60008060408385031215610813576108126106e2565b5b6000610821858286016107e7565b9250506020610832858286016107e7565b9150509250929050565b600082825260208201905092915050565b7f4944454e544943414c5f41444452455353455300000000000000000000000000600082015250565b600061088360138361083c565b915061088e8261084d565b602082019050919050565b600060208201905081810360008301526108b281610876565b9050919050565b7f5a45524f5f414444524553530000000000000000000000000000000000000000600082015250565b60006108ef600c8361083c565b91506108fa826108b9565b602082019050919050565b6000602082019050818103600083015261091e816108e2565b9050919050565b7f556e697377617056323a20504149525f45584953545300000000000000000000600082015250565b600061095b60168361083c565b915061096682610925565b602082019050919050565b6000602082019050818103600083015261098a8161094e565b9050919050565b60008160601b9050919050565b60006109a982610991565b9050919050565b60006109bb8261099e565b9050919050565b6109d36109ce8261076a565b6109b0565b82525050565b60006109e582856109c2565b6014820191506109f582846109c2565b6014820191508190509392505050565b6000604082019050610a1a600083018561077c565b610a27602083018461077c565b9392505050565b6000604082019050610a43600083018561077c565b610a5060208301846107a6565b939250505056fe60a060405234801561001057600080fd5b503373ffffffffffffffffffffffffffffffffffffffff1660808173ffffffffffffffffffffffffffffffffffffffff168152505060805161206861006760003960008181610271015261101f01526120686000f3fe608060405234801561001057600080fd5b50600436106100a95760003560e01c80635a76f25e116100715780635a76f25e146101545780635b18de5f1461017257806370a08231146101a357806374bfd999146101d3578063c45a015514610203578063d21220a714610221576100a9565b80630dfe1681146100ae57806318160ddd146100cc578063443cb4bc146100ea578063485cc9551461010857806352dc029114610124575b600080fd5b6100b661023f565b6040516100c39190611531565b60405180910390f35b6100d4610263565b6040516100e19190611565565b60405180910390f35b6100f2610269565b6040516100ff9190611565565b60405180910390f35b610122600480360381019061011d91906115d2565b61026f565b005b61013e60048036038101906101399190611636565b610382565b60405161014b9190611565565b60405180910390f35b61015c6107ad565b6040516101699190611565565b60405180910390f35b61018c600480360381019061018791906116ae565b6107b3565b60405161019a9291906116f7565b60405180910390f35b6101bd60048036038101906101b89190611720565b610b22565b6040516101ca9190611565565b60405180910390f35b6101ed60048036038101906101e8919061174d565b610b3a565b6040516101fa9190611565565b60405180910390f35b61020b61101d565b60405161021891906117b8565b60405180910390f35b610229611041565b6040516102369190611531565b60405180910390f35b60008054906101000a900473ffffffffffffffffffffffffffffffffffffffff1681565b60045481565b60025481565b7f000000000000000000000000000000000000000000000000000000000000000073ffffffffffffffffffffffffffffffffffffffff163373ffffffffffffffffffffffffffffffffffffffff16146102fd576040517f08c379a00000000000000000000000000000000000000000000000000000000081526004016102f490611830565b60405180910390fd5b816000806101000a81548173ffffffffffffffffffffffffffffffffffffffff021916908373ffffffffffffffffffffffffffffffffffffffff16021790555080600160006101000a81548173ffffffffffffffffffffffffffffffffffffffff021916908373ffffffffffffffffffffffffffffffffffffffff1602179055505050565b60008061039784610392906119f8565b611067565b905060006103ad846103a8906119f8565b611067565b905060006103ba8361107d565b905060006103c78361107d565b905060008054906101000a900473ffffffffffffffffffffffffffffffffffffffff1673ffffffffffffffffffffffffffffffffffffffff166323b872dd33308563ffffffff166040518463ffffffff1660e01b815260040161042c93929190611a0b565b6020604051808303816000875af115801561044b573d6000803e3d6000fd5b505050506040513d601f19601f8201168201806040525081019061046f9190611a7a565b50600160009054906101000a900473ffffffffffffffffffffffffffffffffffffffff1673ffffffffffffffffffffffffffffffffffffffff166323b872dd33308463ffffffff166040518463ffffffff1660e01b81526004016104d593929190611a0b565b6020604051808303816000875af11580156104f4573d6000803e3d6000fd5b505050506040513d601f19601f820116820180604052508101906105189190611a7a565b506000600254118061052c57506000600354115b1561059a578163ffffffff166003546105459190611ad6565b8163ffffffff166002546105599190611ad6565b14610599576040517f08c379a000000000000000000000000000000000000000000000000000000000815260040161059090611b64565b60405180910390fd5b5b6000600454036105cb576105c48163ffffffff168363ffffffff166105bf9190611ad6565b611140565b9450610618565b6106156002546004548463ffffffff166105e59190611ad6565b6105ef9190611bb3565b6003546004548463ffffffff166106069190611ad6565b6106109190611bb3565b6111ba565b94505b6000851161065b576040517f08c379a000000000000000000000000000000000000000000000000000000000815260040161065290611c30565b60405180910390fd5b61066533866111d4565b6107a360008054906101000a900473ffffffffffffffffffffffffffffffffffffffff1673ffffffffffffffffffffffffffffffffffffffff166370a08231306040518263ffffffff1660e01b81526004016106c191906117b8565b602060405180830381865afa1580156106de573d6000803e3d6000fd5b505050506040513d601f19601f820116820180604052508101906107029190611c7c565b600160009054906101000a900473ffffffffffffffffffffffffffffffffffffffff1673ffffffffffffffffffffffffffffffffffffffff166370a08231306040518263ffffffff1660e01b815260040161075d91906117b8565b602060405180830381865afa15801561077a573d6000803e3d6000fd5b505050506040513d601f19601f8201168201806040525081019061079e9190611c7c565b611247565b5050505092915050565b60035481565b60008060006107ca846107c5906119f8565b611067565b905060006107d78261107d565b905060008060009054906101000a900473ffffffffffffffffffffffffffffffffffffffff1673ffffffffffffffffffffffffffffffffffffffff166370a08231306040518263ffffffff1660e01b815260040161083591906117b8565b602060405180830381865afa158015610852573d6000803e3d6000fd5b505050506040513d601f19601f820116820180604052508101906108769190611c7c565b90506000600160009054906101000a900473ffffffffffffffffffffffffffffffffffffffff1673ffffffffffffffffffffffffffffffffffffffff166370a08231306040518263ffffffff1660e01b81526004016108d591906117b8565b602060405180830381865afa1580156108f2573d6000803e3d6000fd5b505050506040513d601f19601f820116820180604052508101906109169190611c7c565b9050600454828463ffffffff1661092d9190611ad6565b6109379190611bb3565b9550600454818463ffffffff1661094e9190611ad6565b6109589190611bb3565b945060008611801561096a5750600085115b6109a9576040517f08c379a00000000000000000000000000000000000000000000000000000000081526004016109a090611cf5565b60405180910390fd5b6109b9338463ffffffff16611259565b6109d986836109c89190611d15565b86836109d49190611d15565b611247565b60008054906101000a900473ffffffffffffffffffffffffffffffffffffffff1673ffffffffffffffffffffffffffffffffffffffff1663a9059cbb33886040518363ffffffff1660e01b8152600401610a34929190611d49565b6020604051808303816000875af1158015610a53573d6000803e3d6000fd5b505050506040513d601f19601f82011682018060405250810190610a779190611a7a565b50600160009054906101000a900473ffffffffffffffffffffffffffffffffffffffff1673ffffffffffffffffffffffffffffffffffffffff1663a9059cbb33876040518363ffffffff1660e01b8152600401610ad5929190611d49565b6020604051808303816000875af1158015610af4573d6000803e3d6000fd5b505050506040513d601f19601f82011682018060405250810190610b189190611a7a565b5050505050915091565b60056020528060005260406000206000915090505481565b600080610b4f83610b4a906119f8565b611067565b90506000610b5c8261107d565b63ffffffff16905060008054906101000a900473ffffffffffffffffffffffffffffffffffffffff1673ffffffffffffffffffffffffffffffffffffffff168573ffffffffffffffffffffffffffffffffffffffff161480610c0b5750600160009054906101000a900473ffffffffffffffffffffffffffffffffffffffff1673ffffffffffffffffffffffffffffffffffffffff168573ffffffffffffffffffffffffffffffffffffffff16145b610c4a576040517f08c379a0000000000000000000000000000000000000000000000000000000008152600401610c4190611dbe565b60405180910390fd5b60008111610c8d576040517f08c379a0000000000000000000000000000000000000000000000000000000008152600401610c8490611e2a565b60405180910390fd5b60008060009054906101000a900473ffffffffffffffffffffffffffffffffffffffff1673ffffffffffffffffffffffffffffffffffffffff168673ffffffffffffffffffffffffffffffffffffffff1614905060008060008084610d3b57600160009054906101000a900473ffffffffffffffffffffffffffffffffffffffff1660008054906101000a900473ffffffffffffffffffffffffffffffffffffffff16600354600254610d86565b60008054906101000a900473ffffffffffffffffffffffffffffffffffffffff16600160009054906101000a900473ffffffffffffffffffffffffffffffffffffffff166002546003545b93509350935093508373ffffffffffffffffffffffffffffffffffffffff166323b872dd3330896040518463ffffffff1660e01b8152600401610dcb93929190611a0b565b6020604051808303816000875af1158015610dea573d6000803e3d6000fd5b505050506040513d601f19601f82011682018060405250810190610e0e9190611a7a565b5060006103e86103e588610e229190611ad6565b610e2c9190611bb3565b90508083610e3a9190611e4a565b8183610e469190611ad6565b610e509190611bb3565b98508373ffffffffffffffffffffffffffffffffffffffff1663a9059cbb338b6040518363ffffffff1660e01b8152600401610e8d929190611d49565b6020604051808303816000875af1158015610eac573d6000803e3d6000fd5b505050506040513d601f19601f82011682018060405250810190610ed09190611a7a565b5061100f60008054906101000a900473ffffffffffffffffffffffffffffffffffffffff1673ffffffffffffffffffffffffffffffffffffffff166370a08231306040518263ffffffff1660e01b8152600401610f2d91906117b8565b602060405180830381865afa158015610f4a573d6000803e3d6000fd5b505050506040513d601f19601f82011682018060405250810190610f6e9190611c7c565b600160009054906101000a900473ffffffffffffffffffffffffffffffffffffffff1673ffffffffffffffffffffffffffffffffffffffff166370a08231306040518263ffffffff1660e01b8152600401610fc991906117b8565b602060405180830381865afa158015610fe6573d6000803e3d6000fd5b505050506040513d601f19601f8201168201806040525081019061100a9190611c7c565b611247565b505050505050505092915050565b7f000000000000000000000000000000000000000000000000000000000000000081565b600160009054906101000a900473ffffffffffffffffffffffffffffffffffffffff1681565b600061107682600001516112cc565b9050919050565b6000611088826112e0565b6110995761109660006112ed565b91505b600082905060006110a982611301565b90506000608073ffffffffffffffffffffffffffffffffffffffff166373cc01546002846040518363ffffffff1660e01b81526004016110ea929190611f19565b602060405180830381865afa158015611107573d6000803e3d6000fd5b505050506040513d601f19601f8201168201806040525081019061112b9190611c7c565b90506111368161135e565b9350505050919050565b600060038211156111a7578190506000600160028461115f9190611bb3565b6111699190611e4a565b90505b818110156111a15780915060028182856111869190611bb3565b6111909190611e4a565b61119a9190611bb3565b905061116c565b506111b5565b600082146111b457600190505b5b919050565b6000818311156111ca57816111cc565b825b905092915050565b80600560008473ffffffffffffffffffffffffffffffffffffffff1673ffffffffffffffffffffffffffffffffffffffff16815260200190815260200160002060008282546112239190611e4a565b92505081905550806004600082825461123c9190611e4a565b925050819055505050565b81600281905550806003819055505050565b80600560008473ffffffffffffffffffffffffffffffffffffffff1673ffffffffffffffffffffffffffffffffffffffff16815260200190815260200160002060008282546112a89190611d15565b9250508190555080600460008282546112c19190611d15565b925050819055505050565b60006112d9826002611368565b9050919050565b6000808214159050919050565b60006112fa826002611402565b9050919050565b6060602067ffffffffffffffff81111561131e5761131d611866565b5b6040519080825280601f01601f1916602001820160405280156113505781602001600182028036833780820191505090505b509050816020820152919050565b6000819050919050565b60006060608073ffffffffffffffffffffffffffffffffffffffff16635fa55ca784866040518363ffffffff1660e01b81526004016113a8929190611f19565b600060405180830381865afa1580156113c5573d6000803e3d6000fd5b505050506040513d6000823e3d601f19601f820116820180604052508101906113ee9190611fb9565b90506113f9816114a4565b91505092915050565b60006060608073ffffffffffffffffffffffffffffffffffffffff166319e1c5c461142c86611301565b856040518363ffffffff1660e01b815260040161144a929190612002565b600060405180830381865afa158015611467573d6000803e3d6000fd5b505050506040513d6000823e3d601f19601f820116820180604052508101906114909190611fb9565b905061149b816114a4565b91505092915050565b600060208201519050919050565b600073ffffffffffffffffffffffffffffffffffffffff82169050919050565b6000819050919050565b60006114f76114f26114ed846114b2565b6114d2565b6114b2565b9050919050565b6000611509826114dc565b9050919050565b600061151b826114fe565b9050919050565b61152b81611510565b82525050565b60006020820190506115466000830184611522565b92915050565b6000819050919050565b61155f8161154c565b82525050565b600060208201905061157a6000830184611556565b92915050565b6000604051905090565b600080fd5b600080fd5b600061159f826114b2565b9050919050565b6115af81611594565b81146115ba57600080fd5b50565b6000813590506115cc816115a6565b92915050565b600080604083850312156115e9576115e861158a565b5b60006115f7858286016115bd565b9250506020611608858286016115bd565b9150509250929050565b600080fd5b60006020828403121561162d5761162c611612565b5b81905092915050565b6000806040838503121561164d5761164c61158a565b5b600083013567ffffffffffffffff81111561166b5761166a61158f565b5b61167785828601611617565b925050602083013567ffffffffffffffff8111156116985761169761158f565b5b6116a485828601611617565b9150509250929050565b6000602082840312156116c4576116c361158a565b5b600082013567ffffffffffffffff8111156116e2576116e161158f565b5b6116ee84828501611617565b91505092915050565b600060408201905061170c6000830185611556565b6117196020830184611556565b9392505050565b6000602082840312156117365761173561158a565b5b6000611744848285016115bd565b91505092915050565b600080604083850312156117645761176361158a565b5b6000611772858286016115bd565b925050602083013567ffffffffffffffff8111156117935761179261158f565b5b61179f85828601611617565b9150509250929050565b6117b281611594565b82525050565b60006020820190506117cd60008301846117a9565b92915050565b600082825260208201905092915050565b7f464f5242494444454e0000000000000000000000000000000000000000000000600082015250565b600061181a6009836117d3565b9150611825826117e4565b602082019050919050565b600060208201905081810360008301526118498161180d565b9050919050565b600080fd5b6000601f19601f8301169050919050565b7f4e487b7100000000000000000000000000000000000000000000000000000000600052604160045260246000fd5b61189e82611855565b810181811067ffffffffffffffff821117156118bd576118bc611866565b5b80604052505050565b60006118d0611580565b90506118dc8282611895565b919050565b600080fd5b600080fd5b600080fd5b600067ffffffffffffffff82111561190b5761190a611866565b5b61191482611855565b9050602081019050919050565b82818337600083830152505050565b600061194361193e846118f0565b6118c6565b90508281526020810184848401111561195f5761195e6118eb565b5b61196a848285611921565b509392505050565b600082601f830112611987576119866118e6565b5b8135611997848260208601611930565b91505092915050565b6000602082840312156119b6576119b5611850565b5b6119c060206118c6565b9050600082013567ffffffffffffffff8111156119e0576119df6118e1565b5b6119ec84828501611972565b60008301525092915050565b6000611a0436836119a0565b9050919050565b6000606082019050611a2060008301866117a9565b611a2d60208301856117a9565b611a3a6040830184611556565b949350505050565b60008115159050919050565b611a5781611a42565b8114611a6257600080fd5b50565b600081519050611a7481611a4e565b92915050565b600060208284031215611a9057611a8f61158a565b5b6000611a9e84828501611a65565b91505092915050565b7f4e487b7100000000000000000000000000000000000000000000000000000000600052601160045260246000fd5b6000611ae18261154c565b9150611aec8361154c565b9250828202611afa8161154c565b91508282048414831517611b1157611b10611aa7565b5b5092915050565b7f78202f207920213d206478202f20647900000000000000000000000000000000600082015250565b6000611b4e6010836117d3565b9150611b5982611b18565b602082019050919050565b60006020820190508181036000830152611b7d81611b41565b9050919050565b7f4e487b7100000000000000000000000000000000000000000000000000000000600052601260045260246000fd5b6000611bbe8261154c565b9150611bc98361154c565b925082611bd957611bd8611b84565b5b828204905092915050565b7f736861726573203d203000000000000000000000000000000000000000000000600082015250565b6000611c1a600a836117d3565b9150611c2582611be4565b602082019050919050565b60006020820190508181036000830152611c4981611c0d565b9050919050565b611c598161154c565b8114611c6457600080fd5b50565b600081519050611c7681611c50565b92915050565b600060208284031215611c9257611c9161158a565b5b6000611ca084828501611c67565b91505092915050565b7f616d6f756e7430206f7220616d6f756e7431203d203000000000000000000000600082015250565b6000611cdf6016836117d3565b9150611cea82611ca9565b602082019050919050565b60006020820190508181036000830152611d0e81611cd2565b9050919050565b6000611d208261154c565b9150611d2b8361154c565b9250828203905081811115611d4357611d42611aa7565b5b92915050565b6000604082019050611d5e60008301856117a9565b611d6b6020830184611556565b9392505050565b7f696e76616c696420746f6b656e00000000000000000000000000000000000000600082015250565b6000611da8600d836117d3565b9150611db382611d72565b602082019050919050565b60006020820190508181036000830152611dd781611d9b565b9050919050565b7f616d6f756e7420696e203d203000000000000000000000000000000000000000600082015250565b6000611e14600d836117d3565b9150611e1f82611dde565b602082019050919050565b60006020820190508181036000830152611e4381611e07565b9050919050565b6000611e558261154c565b9150611e608361154c565b9250828201905080821115611e7857611e77611aa7565b5b92915050565b600060ff82169050919050565b611e9481611e7e565b82525050565b600081519050919050565b600082825260208201905092915050565b60005b83811015611ed4578082015181840152602081019050611eb9565b60008484015250505050565b6000611eeb82611e9a565b611ef58185611ea5565b9350611f05818560208601611eb6565b611f0e81611855565b840191505092915050565b6000604082019050611f2e6000830185611e8b565b8181036020830152611f408184611ee0565b90509392505050565b6000611f5c611f57846118f0565b6118c6565b905082815260208101848484011115611f7857611f776118eb565b5b611f83848285611eb6565b509392505050565b600082601f830112611fa057611f9f6118e6565b5b8151611fb0848260208601611f49565b91505092915050565b600060208284031215611fcf57611fce61158a565b5b600082015167ffffffffffffffff811115611fed57611fec61158f565b5b611ff984828501611f8b565b91505092915050565b6000604082019050818103600083015261201c8185611ee0565b905061202b6020830184611e8b565b939250505056fea2646970667358221220352c85898597a35d3c17935762a79ee510b94315ee066bc2213540ae8862a9d864736f6c63430008130033a26469706673582212200bb925933bdd961e9b6955640d71c9af8309c8b14fb45f8028d08f9350ffc5aa64736f6c63430008130033",
  "devdoc": {
    "kind": "dev",
    "methods": {},
    "version": 1
  },
  "userdoc": {
    "kind": "user",
    "methods": {},
    "version": 1
  },
  "storageLayout": {
    "storage": [
      {
        "astId": 9256,
        "contract": "contracts/Factory.sol:FactoryFHE",
        "label": "getPair",
        "offset": 0,
        "slot": "0",
        "type": "t_mapping(t_address,t_mapping(t_address,t_address))"
      },
      {
        "astId": 9259,
        "contract": "contracts/Factory.sol:FactoryFHE",
        "label": "allPairs",
        "offset": 0,
        "slot": "1",
        "type": "t_array(t_address)dyn_storage"
      }
    ],
    "types": {
      "t_address": {
        "encoding": "inplace",
        "label": "address",
        "numberOfBytes": "20"
      },
      "t_array(t_address)dyn_storage": {
        "base": "t_address",
        "encoding": "dynamic_array",
        "label": "address[]",
        "numberOfBytes": "32"
      },
      "t_mapping(t_address,t_address)": {
        "encoding": "mapping",
        "key": "t_address",
        "label": "mapping(address => address)",
        "numberOfBytes": "32",
        "value": "t_address"
      },
      "t_mapping(t_address,t_mapping(t_address,t_address))": {
        "encoding": "mapping",
        "key": "t_address",
        "label": "mapping(address => mapping(address => address))",
        "numberOfBytes": "32",
        "value": "t_mapping(t_address,t_address)"
      }
    }
  }
}