{
  "address": "0xfb48ca7eCD23A2DfCfeadDEC578Aedf509435E15",
  "abi": [
    {
      "anonymous": false,
      "inputs": [
        {
          "indexed": true,
          "internalType": "address",
          "name": "token0",
          "type": "address"
        },
        {
          "indexed": true,
          "internalType": "address",
          "name": "token1",
          "type": "address"
        },
        {
          "indexed": false,
          "internalType": "address",
          "name": "pair",
          "type": "address"
        },
        {
          "indexed": false,
          "internalType": "uint256",
          "name": "",
          "type": "uint256"
        }
      ],
      "name": "PairCreated",
      "type": "event"
    },
    {
      "inputs": [
        {
          "internalType": "uint256",
          "name": "",
          "type": "uint256"
        }
      ],
      "name": "allPairs",
      "outputs": [
        {
          "internalType": "address",
          "name": "",
          "type": "address"
        }
      ],
      "stateMutability": "view",
      "type": "function"
    },
    {
      "inputs": [],
      "name": "allPairsLength",
      "outputs": [
        {
          "internalType": "uint256",
          "name": "",
          "type": "uint256"
        }
      ],
      "stateMutability": "view",
      "type": "function"
    },
    {
      "inputs": [
        {
          "internalType": "address",
          "name": "tokenA",
          "type": "address"
        },
        {
          "internalType": "address",
          "name": "tokenB",
          "type": "address"
        }
      ],
      "name": "createPair",
      "outputs": [
        {
          "internalType": "address",
          "name": "pair",
          "type": "address"
        }
      ],
      "stateMutability": "nonpayable",
      "type": "function"
    },
    {
      "inputs": [
        {
          "internalType": "address",
          "name": "",
          "type": "address"
        },
        {
          "internalType": "address",
          "name": "",
          "type": "address"
        }
      ],
      "name": "getPair",
      "outputs": [
        {
          "internalType": "address",
          "name": "",
          "type": "address"
        }
      ],
      "stateMutability": "view",
      "type": "function"
    }
  ],
  "transactionHash": "0x834ddd2e2f27d2ca3f1da8ffa98e514ed9539ba40d3e3a2ed1734e0c51a53752",
  "args": [],
  "numDeployments": 14,
  "solcInputHash": "293cf2bb65d63b54b25f3b0b9ed05bed",
  "bytecode": "0x608060405234801561001057600080fd5b50612ec4806100206000396000f3fe608060405234801561001057600080fd5b506004361061004c5760003560e01c80631e3dd18b14610051578063574f2ba314610081578063c9c653961461009f578063e6a43905146100cf575b600080fd5b61006b6004803603810190610066919061095a565b6100ff565b60405161007891906109c8565b60405180910390f35b61008961013e565b60405161009691906109f2565b60405180910390f35b6100b960048036038101906100b49190610a39565b61014b565b6040516100c691906109c8565b60405180910390f35b6100e960048036038101906100e49190610a39565b61074b565b6040516100f691906109c8565b60405180910390f35b6001818154811061010f57600080fd5b906000526020600020016000915054906101000a900473ffffffffffffffffffffffffffffffffffffffff1681565b6000600180549050905090565b600061018b6040518060400160405280600481526020017f646f6e650000000000000000000000000000000000000000000000000000000081525061078d565b8173ffffffffffffffffffffffffffffffffffffffff168373ffffffffffffffffffffffffffffffffffffffff16036101f9576040517f08c379a00000000000000000000000000000000000000000000000000000000081526004016101f090610ad6565b60405180910390fd5b6000808373ffffffffffffffffffffffffffffffffffffffff168573ffffffffffffffffffffffffffffffffffffffff1610610236578385610239565b84845b9150915061027c6040518060400160405280601681526020017f5468652061646472657373206f6620746f6b656e30200000000000000000000081525083610826565b600073ffffffffffffffffffffffffffffffffffffffff168273ffffffffffffffffffffffffffffffffffffffff16036102eb576040517f08c379a00000000000000000000000000000000000000000000000000000000081526004016102e290610b42565b60405180910390fd5b600073ffffffffffffffffffffffffffffffffffffffff166000808473ffffffffffffffffffffffffffffffffffffffff1673ffffffffffffffffffffffffffffffffffffffff16815260200190815260200160002060008373ffffffffffffffffffffffffffffffffffffffff1673ffffffffffffffffffffffffffffffffffffffff16815260200190815260200160002060009054906101000a900473ffffffffffffffffffffffffffffffffffffffff1673ffffffffffffffffffffffffffffffffffffffff16146103f5576040517f08c379a00000000000000000000000000000000000000000000000000000000081526004016103ec90610bae565b60405180910390fd5b60006040518060200161040790610908565b6020820181038252601f19601f820116604052509050600083833360405160200161043493929190610c16565b6040516020818303038152906040528051906020012090508082516020840160fff59450600073ffffffffffffffffffffffffffffffffffffffff168573ffffffffffffffffffffffffffffffffffffffff160361049157600080fd5b8473ffffffffffffffffffffffffffffffffffffffff1663485cc95585856040518363ffffffff1660e01b81526004016104cc929190610c53565b600060405180830381600087803b1580156104e657600080fd5b505af11580156104fa573d6000803e3d6000fd5b50505050846000808673ffffffffffffffffffffffffffffffffffffffff1673ffffffffffffffffffffffffffffffffffffffff16815260200190815260200160002060008573ffffffffffffffffffffffffffffffffffffffff1673ffffffffffffffffffffffffffffffffffffffff16815260200190815260200160002060006101000a81548173ffffffffffffffffffffffffffffffffffffffff021916908373ffffffffffffffffffffffffffffffffffffffff160217905550846000808573ffffffffffffffffffffffffffffffffffffffff1673ffffffffffffffffffffffffffffffffffffffff16815260200190815260200160002060008673ffffffffffffffffffffffffffffffffffffffff1673ffffffffffffffffffffffffffffffffffffffff16815260200190815260200160002060006101000a81548173ffffffffffffffffffffffffffffffffffffffff021916908373ffffffffffffffffffffffffffffffffffffffff1602179055506001859080600181540180825580915050600190039060005260206000200160009091909190916101000a81548173ffffffffffffffffffffffffffffffffffffffff021916908373ffffffffffffffffffffffffffffffffffffffff1602179055508273ffffffffffffffffffffffffffffffffffffffff168473ffffffffffffffffffffffffffffffffffffffff167f0d3648bd0f6ba80134a33ba9275ac585d9d315f0ad8355cddefde31afa28d0e987600180549050604051610739929190610c7c565b60405180910390a35050505092915050565b60006020528160005260406000206020528060005260406000206000915091509054906101000a900473ffffffffffffffffffffffffffffffffffffffff1681565b610823816040516024016107a19190610d24565b6040516020818303038152906040527f41304fac000000000000000000000000000000000000000000000000000000007bffffffffffffffffffffffffffffffffffffffffffffffffffffffff19166020820180517bffffffffffffffffffffffffffffffffffffffffffffffffffffffff83818316178352505050506108c2565b50565b6108be828260405160240161083c929190610d46565b6040516020818303038152906040527f319af333000000000000000000000000000000000000000000000000000000007bffffffffffffffffffffffffffffffffffffffffffffffffffffffff19166020820180517bffffffffffffffffffffffffffffffffffffffffffffffffffffffff83818316178352505050506108c2565b5050565b6108d9816108d16108dc6108fd565b63ffffffff16565b50565b60006a636f6e736f6c652e6c6f679050600080835160208501845afa505050565b610915819050919050565b6120e980610da683390190565b61091d610d76565b565b600080fd5b6000819050919050565b61093781610924565b811461094257600080fd5b50565b6000813590506109548161092e565b92915050565b6000602082840312156109705761096f61091f565b5b600061097e84828501610945565b91505092915050565b600073ffffffffffffffffffffffffffffffffffffffff82169050919050565b60006109b282610987565b9050919050565b6109c2816109a7565b82525050565b60006020820190506109dd60008301846109b9565b92915050565b6109ec81610924565b82525050565b6000602082019050610a0760008301846109e3565b92915050565b610a16816109a7565b8114610a2157600080fd5b50565b600081359050610a3381610a0d565b92915050565b60008060408385031215610a5057610a4f61091f565b5b6000610a5e85828601610a24565b9250506020610a6f85828601610a24565b9150509250929050565b600082825260208201905092915050565b7f4944454e544943414c5f41444452455353455300000000000000000000000000600082015250565b6000610ac0601383610a79565b9150610acb82610a8a565b602082019050919050565b60006020820190508181036000830152610aef81610ab3565b9050919050565b7f5a45524f5f414444524553530000000000000000000000000000000000000000600082015250565b6000610b2c600c83610a79565b9150610b3782610af6565b602082019050919050565b60006020820190508181036000830152610b5b81610b1f565b9050919050565b7f504149525f455849535453000000000000000000000000000000000000000000600082015250565b6000610b98600b83610a79565b9150610ba382610b62565b602082019050919050565b60006020820190508181036000830152610bc781610b8b565b9050919050565b60008160601b9050919050565b6000610be682610bce565b9050919050565b6000610bf882610bdb565b9050919050565b610c10610c0b826109a7565b610bed565b82525050565b6000610c228286610bff565b601482019150610c328285610bff565b601482019150610c428284610bff565b601482019150819050949350505050565b6000604082019050610c6860008301856109b9565b610c7560208301846109b9565b9392505050565b6000604082019050610c9160008301856109b9565b610c9e60208301846109e3565b9392505050565b600081519050919050565b60005b83811015610cce578082015181840152602081019050610cb3565b60008484015250505050565b6000601f19601f8301169050919050565b6000610cf682610ca5565b610d008185610a79565b9350610d10818560208601610cb0565b610d1981610cda565b840191505092915050565b60006020820190508181036000830152610d3e8184610ceb565b905092915050565b60006040820190508181036000830152610d608185610ceb565b9050610d6f60208301846109b9565b9392505050565b7f4e487b7100000000000000000000000000000000000000000000000000000000600052605160045260246000fdfe608060405234801561001057600080fd5b5033600260006101000a81548173ffffffffffffffffffffffffffffffffffffffff021916908373ffffffffffffffffffffffffffffffffffffffff160217905550612088806100616000396000f3fe608060405234801561001057600080fd5b50600436106100a95760003560e01c80635a76f25e116100715780635a76f25e146101545780635b18de5f1461017257806370a08231146101a357806374bfd999146101d3578063c45a015514610203578063d21220a714610221576100a9565b80630dfe1681146100ae57806318160ddd146100cc578063443cb4bc146100ea578063485cc9551461010857806352dc029114610124575b600080fd5b6100b661023f565b6040516100c39190611551565b60405180910390f35b6100d4610263565b6040516100e19190611585565b60405180910390f35b6100f2610269565b6040516100ff9190611585565b60405180910390f35b610122600480360381019061011d91906115f2565b61026f565b005b61013e60048036038101906101399190611656565b610384565b60405161014b9190611585565b60405180910390f35b61015c6107cb565b6040516101699190611585565b60405180910390f35b61018c600480360381019061018791906116ce565b6107d1565b60405161019a929190611717565b60405180910390f35b6101bd60048036038101906101b89190611740565b610b40565b6040516101ca9190611585565b60405180910390f35b6101ed60048036038101906101e8919061176d565b610b58565b6040516101fa9190611585565b60405180910390f35b61020b61103b565b60405161021891906117d8565b60405180910390f35b610229611061565b6040516102369190611551565b60405180910390f35b60008054906101000a900473ffffffffffffffffffffffffffffffffffffffff1681565b60055481565b60035481565b600260009054906101000a900473ffffffffffffffffffffffffffffffffffffffff1673ffffffffffffffffffffffffffffffffffffffff163373ffffffffffffffffffffffffffffffffffffffff16146102ff576040517f08c379a00000000000000000000000000000000000000000000000000000000081526004016102f690611850565b60405180910390fd5b816000806101000a81548173ffffffffffffffffffffffffffffffffffffffff021916908373ffffffffffffffffffffffffffffffffffffffff16021790555080600160006101000a81548173ffffffffffffffffffffffffffffffffffffffff021916908373ffffffffffffffffffffffffffffffffffffffff1602179055505050565b6000806103998461039490611a18565b611087565b905060006103af846103aa90611a18565b611087565b905060006103bc8361109d565b905060006103c98361109d565b905060008060009054906101000a900473ffffffffffffffffffffffffffffffffffffffff1673ffffffffffffffffffffffffffffffffffffffff166323b872dd33308663ffffffff166040518463ffffffff1660e01b815260040161043193929190611a2b565b6020604051808303816000875af1158015610450573d6000803e3d6000fd5b505050506040513d601f19601f820116820180604052508101906104749190611a9a565b90506000600160009054906101000a900473ffffffffffffffffffffffffffffffffffffffff1673ffffffffffffffffffffffffffffffffffffffff166323b872dd33308663ffffffff166040518463ffffffff1660e01b81526004016104dd93929190611a2b565b6020604051808303816000875af11580156104fc573d6000803e3d6000fd5b505050506040513d601f19601f820116820180604052508101906105209190611a9a565b905081801561052c5750805b61053557600080fd5b6000600354118061054857506000600454115b156105b6578363ffffffff166004546105619190611af6565b8363ffffffff166003546105759190611af6565b146105b5576040517f08c379a00000000000000000000000000000000000000000000000000000000081526004016105ac90611b84565b60405180910390fd5b5b6000600554036105e7576105e08363ffffffff168563ffffffff166105db9190611af6565b611160565b9650610634565b6106316003546005548663ffffffff166106019190611af6565b61060b9190611bd3565b6004546005548663ffffffff166106229190611af6565b61062c9190611bd3565b6111da565b96505b60008711610677576040517f08c379a000000000000000000000000000000000000000000000000000000000815260040161066e90611c50565b60405180910390fd5b61068133886111f4565b6107bf60008054906101000a900473ffffffffffffffffffffffffffffffffffffffff1673ffffffffffffffffffffffffffffffffffffffff166370a08231306040518263ffffffff1660e01b81526004016106dd91906117d8565b602060405180830381865afa1580156106fa573d6000803e3d6000fd5b505050506040513d601f19601f8201168201806040525081019061071e9190611c9c565b600160009054906101000a900473ffffffffffffffffffffffffffffffffffffffff1673ffffffffffffffffffffffffffffffffffffffff166370a08231306040518263ffffffff1660e01b815260040161077991906117d8565b602060405180830381865afa158015610796573d6000803e3d6000fd5b505050506040513d601f19601f820116820180604052508101906107ba9190611c9c565b611267565b50505050505092915050565b60045481565b60008060006107e8846107e390611a18565b611087565b905060006107f58261109d565b905060008060009054906101000a900473ffffffffffffffffffffffffffffffffffffffff1673ffffffffffffffffffffffffffffffffffffffff166370a08231306040518263ffffffff1660e01b815260040161085391906117d8565b602060405180830381865afa158015610870573d6000803e3d6000fd5b505050506040513d601f19601f820116820180604052508101906108949190611c9c565b90506000600160009054906101000a900473ffffffffffffffffffffffffffffffffffffffff1673ffffffffffffffffffffffffffffffffffffffff166370a08231306040518263ffffffff1660e01b81526004016108f391906117d8565b602060405180830381865afa158015610910573d6000803e3d6000fd5b505050506040513d601f19601f820116820180604052508101906109349190611c9c565b9050600554828463ffffffff1661094b9190611af6565b6109559190611bd3565b9550600554818463ffffffff1661096c9190611af6565b6109769190611bd3565b94506000861180156109885750600085115b6109c7576040517f08c379a00000000000000000000000000000000000000000000000000000000081526004016109be90611d15565b60405180910390fd5b6109d7338463ffffffff16611279565b6109f786836109e69190611d35565b86836109f29190611d35565b611267565b60008054906101000a900473ffffffffffffffffffffffffffffffffffffffff1673ffffffffffffffffffffffffffffffffffffffff1663a9059cbb33886040518363ffffffff1660e01b8152600401610a52929190611d69565b6020604051808303816000875af1158015610a71573d6000803e3d6000fd5b505050506040513d601f19601f82011682018060405250810190610a959190611a9a565b50600160009054906101000a900473ffffffffffffffffffffffffffffffffffffffff1673ffffffffffffffffffffffffffffffffffffffff1663a9059cbb33876040518363ffffffff1660e01b8152600401610af3929190611d69565b6020604051808303816000875af1158015610b12573d6000803e3d6000fd5b505050506040513d601f19601f82011682018060405250810190610b369190611a9a565b5050505050915091565b60066020528060005260406000206000915090505481565b600080610b6d83610b6890611a18565b611087565b90506000610b7a8261109d565b63ffffffff16905060008054906101000a900473ffffffffffffffffffffffffffffffffffffffff1673ffffffffffffffffffffffffffffffffffffffff168573ffffffffffffffffffffffffffffffffffffffff161480610c295750600160009054906101000a900473ffffffffffffffffffffffffffffffffffffffff1673ffffffffffffffffffffffffffffffffffffffff168573ffffffffffffffffffffffffffffffffffffffff16145b610c68576040517f08c379a0000000000000000000000000000000000000000000000000000000008152600401610c5f90611dde565b60405180910390fd5b60008111610cab576040517f08c379a0000000000000000000000000000000000000000000000000000000008152600401610ca290611e4a565b60405180910390fd5b60008060009054906101000a900473ffffffffffffffffffffffffffffffffffffffff1673ffffffffffffffffffffffffffffffffffffffff168673ffffffffffffffffffffffffffffffffffffffff1614905060008060008084610d5957600160009054906101000a900473ffffffffffffffffffffffffffffffffffffffff1660008054906101000a900473ffffffffffffffffffffffffffffffffffffffff16600454600354610da4565b60008054906101000a900473ffffffffffffffffffffffffffffffffffffffff16600160009054906101000a900473ffffffffffffffffffffffffffffffffffffffff166003546004545b93509350935093508373ffffffffffffffffffffffffffffffffffffffff166323b872dd3330896040518463ffffffff1660e01b8152600401610de993929190611a2b565b6020604051808303816000875af1158015610e08573d6000803e3d6000fd5b505050506040513d601f19601f82011682018060405250810190610e2c9190611a9a565b5060006103e86103e588610e409190611af6565b610e4a9190611bd3565b90508083610e589190611e6a565b8183610e649190611af6565b610e6e9190611bd3565b98508373ffffffffffffffffffffffffffffffffffffffff1663a9059cbb338b6040518363ffffffff1660e01b8152600401610eab929190611d69565b6020604051808303816000875af1158015610eca573d6000803e3d6000fd5b505050506040513d601f19601f82011682018060405250810190610eee9190611a9a565b5061102d60008054906101000a900473ffffffffffffffffffffffffffffffffffffffff1673ffffffffffffffffffffffffffffffffffffffff166370a08231306040518263ffffffff1660e01b8152600401610f4b91906117d8565b602060405180830381865afa158015610f68573d6000803e3d6000fd5b505050506040513d601f19601f82011682018060405250810190610f8c9190611c9c565b600160009054906101000a900473ffffffffffffffffffffffffffffffffffffffff1673ffffffffffffffffffffffffffffffffffffffff166370a08231306040518263ffffffff1660e01b8152600401610fe791906117d8565b602060405180830381865afa158015611004573d6000803e3d6000fd5b505050506040513d601f19601f820116820180604052508101906110289190611c9c565b611267565b505050505050505092915050565b600260009054906101000a900473ffffffffffffffffffffffffffffffffffffffff1681565b600160009054906101000a900473ffffffffffffffffffffffffffffffffffffffff1681565b600061109682600001516112ec565b9050919050565b60006110a882611300565b6110b9576110b6600061130d565b91505b600082905060006110c982611321565b90506000608073ffffffffffffffffffffffffffffffffffffffff166373cc01546002846040518363ffffffff1660e01b815260040161110a929190611f39565b602060405180830381865afa158015611127573d6000803e3d6000fd5b505050506040513d601f19601f8201168201806040525081019061114b9190611c9c565b90506111568161137e565b9350505050919050565b600060038211156111c7578190506000600160028461117f9190611bd3565b6111899190611e6a565b90505b818110156111c15780915060028182856111a69190611bd3565b6111b09190611e6a565b6111ba9190611bd3565b905061118c565b506111d5565b600082146111d457600190505b5b919050565b6000818311156111ea57816111ec565b825b905092915050565b80600660008473ffffffffffffffffffffffffffffffffffffffff1673ffffffffffffffffffffffffffffffffffffffff16815260200190815260200160002060008282546112439190611e6a565b92505081905550806005600082825461125c9190611e6a565b925050819055505050565b81600381905550806004819055505050565b80600660008473ffffffffffffffffffffffffffffffffffffffff1673ffffffffffffffffffffffffffffffffffffffff16815260200190815260200160002060008282546112c89190611d35565b9250508190555080600560008282546112e19190611d35565b925050819055505050565b60006112f9826002611388565b9050919050565b6000808214159050919050565b600061131a826002611422565b9050919050565b6060602067ffffffffffffffff81111561133e5761133d611886565b5b6040519080825280601f01601f1916602001820160405280156113705781602001600182028036833780820191505090505b509050816020820152919050565b6000819050919050565b60006060608073ffffffffffffffffffffffffffffffffffffffff16635fa55ca784866040518363ffffffff1660e01b81526004016113c8929190611f39565b600060405180830381865afa1580156113e5573d6000803e3d6000fd5b505050506040513d6000823e3d601f19601f8201168201806040525081019061140e9190611fd9565b9050611419816114c4565b91505092915050565b60006060608073ffffffffffffffffffffffffffffffffffffffff166319e1c5c461144c86611321565b856040518363ffffffff1660e01b815260040161146a929190612022565b600060405180830381865afa158015611487573d6000803e3d6000fd5b505050506040513d6000823e3d601f19601f820116820180604052508101906114b09190611fd9565b90506114bb816114c4565b91505092915050565b600060208201519050919050565b600073ffffffffffffffffffffffffffffffffffffffff82169050919050565b6000819050919050565b600061151761151261150d846114d2565b6114f2565b6114d2565b9050919050565b6000611529826114fc565b9050919050565b600061153b8261151e565b9050919050565b61154b81611530565b82525050565b60006020820190506115666000830184611542565b92915050565b6000819050919050565b61157f8161156c565b82525050565b600060208201905061159a6000830184611576565b92915050565b6000604051905090565b600080fd5b600080fd5b60006115bf826114d2565b9050919050565b6115cf816115b4565b81146115da57600080fd5b50565b6000813590506115ec816115c6565b92915050565b60008060408385031215611609576116086115aa565b5b6000611617858286016115dd565b9250506020611628858286016115dd565b9150509250929050565b600080fd5b60006020828403121561164d5761164c611632565b5b81905092915050565b6000806040838503121561166d5761166c6115aa565b5b600083013567ffffffffffffffff81111561168b5761168a6115af565b5b61169785828601611637565b925050602083013567ffffffffffffffff8111156116b8576116b76115af565b5b6116c485828601611637565b9150509250929050565b6000602082840312156116e4576116e36115aa565b5b600082013567ffffffffffffffff811115611702576117016115af565b5b61170e84828501611637565b91505092915050565b600060408201905061172c6000830185611576565b6117396020830184611576565b9392505050565b600060208284031215611756576117556115aa565b5b6000611764848285016115dd565b91505092915050565b60008060408385031215611784576117836115aa565b5b6000611792858286016115dd565b925050602083013567ffffffffffffffff8111156117b3576117b26115af565b5b6117bf85828601611637565b9150509250929050565b6117d2816115b4565b82525050565b60006020820190506117ed60008301846117c9565b92915050565b600082825260208201905092915050565b7f4f6e6c7920466163746f72792063616e2063616c6c2074686973000000000000600082015250565b600061183a601a836117f3565b915061184582611804565b602082019050919050565b600060208201905081810360008301526118698161182d565b9050919050565b600080fd5b6000601f19601f8301169050919050565b7f4e487b7100000000000000000000000000000000000000000000000000000000600052604160045260246000fd5b6118be82611875565b810181811067ffffffffffffffff821117156118dd576118dc611886565b5b80604052505050565b60006118f06115a0565b90506118fc82826118b5565b919050565b600080fd5b600080fd5b600080fd5b600067ffffffffffffffff82111561192b5761192a611886565b5b61193482611875565b9050602081019050919050565b82818337600083830152505050565b600061196361195e84611910565b6118e6565b90508281526020810184848401111561197f5761197e61190b565b5b61198a848285611941565b509392505050565b600082601f8301126119a7576119a6611906565b5b81356119b7848260208601611950565b91505092915050565b6000602082840312156119d6576119d5611870565b5b6119e060206118e6565b9050600082013567ffffffffffffffff811115611a00576119ff611901565b5b611a0c84828501611992565b60008301525092915050565b6000611a2436836119c0565b9050919050565b6000606082019050611a4060008301866117c9565b611a4d60208301856117c9565b611a5a6040830184611576565b949350505050565b60008115159050919050565b611a7781611a62565b8114611a8257600080fd5b50565b600081519050611a9481611a6e565b92915050565b600060208284031215611ab057611aaf6115aa565b5b6000611abe84828501611a85565b91505092915050565b7f4e487b7100000000000000000000000000000000000000000000000000000000600052601160045260246000fd5b6000611b018261156c565b9150611b0c8361156c565b9250828202611b1a8161156c565b91508282048414831517611b3157611b30611ac7565b5b5092915050565b7f78202f207920213d206478202f20647900000000000000000000000000000000600082015250565b6000611b6e6010836117f3565b9150611b7982611b38565b602082019050919050565b60006020820190508181036000830152611b9d81611b61565b9050919050565b7f4e487b7100000000000000000000000000000000000000000000000000000000600052601260045260246000fd5b6000611bde8261156c565b9150611be98361156c565b925082611bf957611bf8611ba4565b5b828204905092915050565b7f736861726573203d203000000000000000000000000000000000000000000000600082015250565b6000611c3a600a836117f3565b9150611c4582611c04565b602082019050919050565b60006020820190508181036000830152611c6981611c2d565b9050919050565b611c798161156c565b8114611c8457600080fd5b50565b600081519050611c9681611c70565b92915050565b600060208284031215611cb257611cb16115aa565b5b6000611cc084828501611c87565b91505092915050565b7f616d6f756e7430206f7220616d6f756e7431203d203000000000000000000000600082015250565b6000611cff6016836117f3565b9150611d0a82611cc9565b602082019050919050565b60006020820190508181036000830152611d2e81611cf2565b9050919050565b6000611d408261156c565b9150611d4b8361156c565b9250828203905081811115611d6357611d62611ac7565b5b92915050565b6000604082019050611d7e60008301856117c9565b611d8b6020830184611576565b9392505050565b7f696e76616c696420746f6b656e00000000000000000000000000000000000000600082015250565b6000611dc8600d836117f3565b9150611dd382611d92565b602082019050919050565b60006020820190508181036000830152611df781611dbb565b9050919050565b7f616d6f756e7420696e203d203000000000000000000000000000000000000000600082015250565b6000611e34600d836117f3565b9150611e3f82611dfe565b602082019050919050565b60006020820190508181036000830152611e6381611e27565b9050919050565b6000611e758261156c565b9150611e808361156c565b9250828201905080821115611e9857611e97611ac7565b5b92915050565b600060ff82169050919050565b611eb481611e9e565b82525050565b600081519050919050565b600082825260208201905092915050565b60005b83811015611ef4578082015181840152602081019050611ed9565b60008484015250505050565b6000611f0b82611eba565b611f158185611ec5565b9350611f25818560208601611ed6565b611f2e81611875565b840191505092915050565b6000604082019050611f4e6000830185611eab565b8181036020830152611f608184611f00565b90509392505050565b6000611f7c611f7784611910565b6118e6565b905082815260208101848484011115611f9857611f9761190b565b5b611fa3848285611ed6565b509392505050565b600082601f830112611fc057611fbf611906565b5b8151611fd0848260208601611f69565b91505092915050565b600060208284031215611fef57611fee6115aa565b5b600082015167ffffffffffffffff81111561200d5761200c6115af565b5b61201984828501611fab565b91505092915050565b6000604082019050818103600083015261203c8185611f00565b905061204b6020830184611eab565b939250505056fea2646970667358221220ef4216e02eebffd77dac78146a84a37ad7c74c8dc59d6583f5718556ec78ea5464736f6c63430008130033a26469706673582212200267f019a596fd8e1b6c889519a082ef2c14820a6957e454ea2c60ca3499462464736f6c63430008130033",
  "devdoc": {
    "kind": "dev",
    "methods": {},
    "version": 1
  },
  "userdoc": {
    "kind": "user",
    "methods": {},
    "version": 1
  },
  "storageLayout": {
    "storage": [
      {
        "astId": 9332,
        "contract": "contracts/Factory.sol:FactoryFHE",
        "label": "getPair",
        "offset": 0,
        "slot": "0",
        "type": "t_mapping(t_address,t_mapping(t_address,t_address))"
      },
      {
        "astId": 9335,
        "contract": "contracts/Factory.sol:FactoryFHE",
        "label": "allPairs",
        "offset": 0,
        "slot": "1",
        "type": "t_array(t_address)dyn_storage"
      }
    ],
    "types": {
      "t_address": {
        "encoding": "inplace",
        "label": "address",
        "numberOfBytes": "20"
      },
      "t_array(t_address)dyn_storage": {
        "base": "t_address",
        "encoding": "dynamic_array",
        "label": "address[]",
        "numberOfBytes": "32"
      },
      "t_mapping(t_address,t_address)": {
        "encoding": "mapping",
        "key": "t_address",
        "label": "mapping(address => address)",
        "numberOfBytes": "32",
        "value": "t_address"
      },
      "t_mapping(t_address,t_mapping(t_address,t_address))": {
        "encoding": "mapping",
        "key": "t_address",
        "label": "mapping(address => mapping(address => address))",
        "numberOfBytes": "32",
        "value": "t_mapping(t_address,t_address)"
      }
    }
  }
}