{
  "address": "0xC5F8b43D47FAa13FCd5f803153Ed28a7c58853F9",
  "abi": [
    {
      "inputs": [],
      "stateMutability": "nonpayable",
      "type": "constructor"
    },
    {
      "inputs": [],
      "name": "InvalidShortString",
      "type": "error"
    },
    {
      "inputs": [
        {
          "internalType": "string",
          "name": "str",
          "type": "string"
        }
      ],
      "name": "StringTooLong",
      "type": "error"
    },
    {
      "anonymous": false,
      "inputs": [],
      "name": "EIP712DomainChanged",
      "type": "event"
    },
    {
      "inputs": [
        {
          "components": [
            {
              "internalType": "bytes",
              "name": "data",
              "type": "bytes"
            }
          ],
          "internalType": "struct inEuint32",
          "name": "_amount0",
          "type": "tuple"
        },
        {
          "components": [
            {
              "internalType": "bytes",
              "name": "data",
              "type": "bytes"
            }
          ],
          "internalType": "struct inEuint32",
          "name": "_amount1",
          "type": "tuple"
        }
      ],
      "name": "addLiquidity",
      "outputs": [
        {
          "internalType": "uint256",
          "name": "shares",
          "type": "uint256"
        }
      ],
      "stateMutability": "nonpayable",
      "type": "function"
    },
    {
      "inputs": [
        {
          "internalType": "address",
          "name": "",
          "type": "address"
        }
      ],
      "name": "balanceOf",
      "outputs": [
        {
          "internalType": "uint256",
          "name": "",
          "type": "uint256"
        }
      ],
      "stateMutability": "view",
      "type": "function"
    },
    {
      "inputs": [],
      "name": "eip712Domain",
      "outputs": [
        {
          "internalType": "bytes1",
          "name": "fields",
          "type": "bytes1"
        },
        {
          "internalType": "string",
          "name": "name",
          "type": "string"
        },
        {
          "internalType": "string",
          "name": "version",
          "type": "string"
        },
        {
          "internalType": "uint256",
          "name": "chainId",
          "type": "uint256"
        },
        {
          "internalType": "address",
          "name": "verifyingContract",
          "type": "address"
        },
        {
          "internalType": "bytes32",
          "name": "salt",
          "type": "bytes32"
        },
        {
          "internalType": "uint256[]",
          "name": "extensions",
          "type": "uint256[]"
        }
      ],
      "stateMutability": "view",
      "type": "function"
    },
    {
      "inputs": [],
      "name": "factory",
      "outputs": [
        {
          "internalType": "address",
          "name": "",
          "type": "address"
        }
      ],
      "stateMutability": "view",
      "type": "function"
    },
    {
      "inputs": [
        {
          "internalType": "address",
          "name": "_token0",
          "type": "address"
        },
        {
          "internalType": "address",
          "name": "_token1",
          "type": "address"
        }
      ],
      "name": "initialize",
      "outputs": [],
      "stateMutability": "nonpayable",
      "type": "function"
    },
    {
      "inputs": [
        {
          "components": [
            {
              "internalType": "bytes",
              "name": "data",
              "type": "bytes"
            }
          ],
          "internalType": "struct inEuint32",
          "name": "_shares",
          "type": "tuple"
        }
      ],
      "name": "removeLiquidity",
      "outputs": [
        {
          "internalType": "uint256",
          "name": "amount0",
          "type": "uint256"
        },
        {
          "internalType": "uint256",
          "name": "amount1",
          "type": "uint256"
        }
      ],
      "stateMutability": "nonpayable",
      "type": "function"
    },
    {
      "inputs": [],
      "name": "reserve0",
      "outputs": [
        {
          "internalType": "uint256",
          "name": "",
          "type": "uint256"
        }
      ],
      "stateMutability": "view",
      "type": "function"
    },
    {
      "inputs": [],
      "name": "reserve1",
      "outputs": [
        {
          "internalType": "uint256",
          "name": "",
          "type": "uint256"
        }
      ],
      "stateMutability": "view",
      "type": "function"
    },
    {
      "inputs": [
        {
          "internalType": "address",
          "name": "_tokenIn",
          "type": "address"
        },
        {
          "components": [
            {
              "internalType": "bytes",
              "name": "data",
              "type": "bytes"
            }
          ],
          "internalType": "struct inEuint32",
          "name": "_amountIn",
          "type": "tuple"
        }
      ],
      "name": "swap",
      "outputs": [
        {
          "internalType": "uint256",
          "name": "amountOut",
          "type": "uint256"
        }
      ],
      "stateMutability": "nonpayable",
      "type": "function"
    },
    {
      "inputs": [],
      "name": "token0",
      "outputs": [
        {
          "internalType": "contract IERC20",
          "name": "",
          "type": "address"
        }
      ],
      "stateMutability": "view",
      "type": "function"
    },
    {
      "inputs": [],
      "name": "token1",
      "outputs": [
        {
          "internalType": "contract IERC20",
          "name": "",
          "type": "address"
        }
      ],
      "stateMutability": "view",
      "type": "function"
    },
    {
      "inputs": [],
      "name": "totalSupply",
      "outputs": [
        {
          "internalType": "uint256",
          "name": "",
          "type": "uint256"
        }
      ],
      "stateMutability": "view",
      "type": "function"
    }
  ],
  "transactionHash": "0x3b27c9490ae41494c272a9d6e512f367f2e600335eb5d7b4f732069a15e27d65",
  "args": [],
  "numDeployments": 8,
  "solcInputHash": "6fd470df58c1a0690067354582ec43ff",
  "bytecode": "0x6101806040523480156200001257600080fd5b506040518060400160405280600a81526020017f417574685f4552433230000000000000000000000000000000000000000000008152506040518060400160405280600181526020017f31000000000000000000000000000000000000000000000000000000000000008152508181620000976000836200016e60201b90919060201c565b6101208181525050620000b56001826200016e60201b90919060201c565b6101408181525050818051906020012060e08181525050808051906020012061010081815250504660a08181525050620000f4620001c660201b60201c565b608081815250503073ffffffffffffffffffffffffffffffffffffffff1660c08173ffffffffffffffffffffffffffffffffffffffff1681525050505050503373ffffffffffffffffffffffffffffffffffffffff166101608173ffffffffffffffffffffffffffffffffffffffff16815250506200081e565b600060208351101562000194576200018c836200022360201b60201c565b9050620001c0565b82620001a6836200029060201b60201c565b6000019081620001b7919062000514565b5060ff60001b90505b92915050565b60007f8b73c3c69bb8fe3d512ecc4cf759cc79239f7b179b0ffacaa9a75d522b39400f60e051610100514630604051602001620002089594939291906200066c565b60405160208183030381529060405280519060200120905090565b600080829050601f815111156200027357826040517f305a27a90000000000000000000000000000000000000000000000000000000081526004016200026a919062000758565b60405180910390fd5b8051816200028190620007ae565b60001c1760001b915050919050565b6000819050919050565b600081519050919050565b7f4e487b7100000000000000000000000000000000000000000000000000000000600052604160045260246000fd5b7f4e487b7100000000000000000000000000000000000000000000000000000000600052602260045260246000fd5b600060028204905060018216806200031c57607f821691505b602082108103620003325762000331620002d4565b5b50919050565b60008190508160005260206000209050919050565b60006020601f8301049050919050565b600082821b905092915050565b6000600883026200039c7fffffffffffffffffffffffffffffffffffffffffffffffffffffffffffffffff826200035d565b620003a886836200035d565b95508019841693508086168417925050509392505050565b6000819050919050565b6000819050919050565b6000620003f5620003ef620003e984620003c0565b620003ca565b620003c0565b9050919050565b6000819050919050565b6200041183620003d4565b620004296200042082620003fc565b8484546200036a565b825550505050565b600090565b6200044062000431565b6200044d81848462000406565b505050565b5b8181101562000475576200046960008262000436565b60018101905062000453565b5050565b601f821115620004c4576200048e8162000338565b62000499846200034d565b81016020851015620004a9578190505b620004c1620004b8856200034d565b83018262000452565b50505b505050565b600082821c905092915050565b6000620004e960001984600802620004c9565b1980831691505092915050565b6000620005048383620004d6565b9150826002028217905092915050565b6200051f826200029a565b67ffffffffffffffff8111156200053b576200053a620002a5565b5b62000547825462000303565b6200055482828562000479565b600060209050601f8311600181146200058c576000841562000577578287015190505b620005838582620004f6565b865550620005f3565b601f1984166200059c8662000338565b60005b82811015620005c6578489015182556001820191506020850194506020810190506200059f565b86831015620005e65784890151620005e2601f891682620004d6565b8355505b6001600288020188555050505b505050505050565b6000819050919050565b6200061081620005fb565b82525050565b6200062181620003c0565b82525050565b600073ffffffffffffffffffffffffffffffffffffffff82169050919050565b6000620006548262000627565b9050919050565b620006668162000647565b82525050565b600060a08201905062000683600083018862000605565b62000692602083018762000605565b620006a1604083018662000605565b620006b0606083018562000616565b620006bf60808301846200065b565b9695505050505050565b600082825260208201905092915050565b60005b83811015620006fa578082015181840152602081019050620006dd565b60008484015250505050565b6000601f19601f8301169050919050565b600062000724826200029a565b620007308185620006c9565b935062000742818560208601620006da565b6200074d8162000706565b840191505092915050565b6000602082019050818103600083015262000774818462000717565b905092915050565b600081519050919050565b6000819050602082019050919050565b6000620007a58251620005fb565b80915050919050565b6000620007bb826200077c565b82620007c78462000787565b9050620007d48162000797565b925060208210156200081757620008127fffffffffffffffffffffffffffffffffffffffffffffffffffffffffffffffff836020036008026200035d565b831692505b5050919050565b60805160a05160c05160e051610100516101205161014051610160516125176200087c600039600081816102a201526111570152600061109a01526000611066015260005050600050506000505060005050600050506125176000f3fe608060405234801561001057600080fd5b50600436106100b45760003560e01c80635b18de5f116100715780635b18de5f1461017d57806370a08231146101ae57806374bfd999146101de57806384b0196e1461020e578063c45a015514610232578063d21220a714610250576100b4565b80630dfe1681146100b957806318160ddd146100d7578063443cb4bc146100f5578063485cc9551461011357806352dc02911461012f5780635a76f25e1461015f575b600080fd5b6100c161026e565b6040516100ce91906117dd565b60405180910390f35b6100df610294565b6040516100ec9190611811565b60405180910390f35b6100fd61029a565b60405161010a9190611811565b60405180910390f35b61012d6004803603810190610128919061187e565b6102a0565b005b61014960048036038101906101449190611a66565b6103b4565b6040516101569190611811565b60405180910390f35b6101676107dd565b6040516101749190611811565b60405180910390f35b61019760048036038101906101929190611ade565b6107e3565b6040516101a5929190611b27565b60405180910390f35b6101c860048036038101906101c39190611b50565b610b4c565b6040516101d59190611811565b60405180910390f35b6101f860048036038101906101f39190611b7d565b610b64565b6040516102059190611811565b60405180910390f35b610216611053565b6040516102299796959493929190611d79565b60405180910390f35b61023a611155565b6040516102479190611dfd565b60405180910390f35b610258611179565b60405161026591906117dd565b60405180910390f35b600260009054906101000a900473ffffffffffffffffffffffffffffffffffffffff1681565b60065481565b60045481565b7f000000000000000000000000000000000000000000000000000000000000000073ffffffffffffffffffffffffffffffffffffffff163373ffffffffffffffffffffffffffffffffffffffff161461032e576040517f08c379a000000000000000000000000000000000000000000000000000000000815260040161032590611e64565b60405180910390fd5b81600260006101000a81548173ffffffffffffffffffffffffffffffffffffffff021916908373ffffffffffffffffffffffffffffffffffffffff16021790555080600360006101000a81548173ffffffffffffffffffffffffffffffffffffffff021916908373ffffffffffffffffffffffffffffffffffffffff1602179055505050565b6000806103c08461119f565b905060006103cd8461119f565b905060006103da836111b5565b905060006103e7836111b5565b9050600260009054906101000a900473ffffffffffffffffffffffffffffffffffffffff1673ffffffffffffffffffffffffffffffffffffffff166323b872dd33308563ffffffff166040518463ffffffff1660e01b815260040161044e93929190611e84565b6020604051808303816000875af115801561046d573d6000803e3d6000fd5b505050506040513d601f19601f820116820180604052508101906104919190611ef3565b50600360009054906101000a900473ffffffffffffffffffffffffffffffffffffffff1673ffffffffffffffffffffffffffffffffffffffff166323b872dd33308463ffffffff166040518463ffffffff1660e01b81526004016104f793929190611e84565b6020604051808303816000875af1158015610516573d6000803e3d6000fd5b505050506040513d601f19601f8201168201806040525081019061053a9190611ef3565b506000600454118061054e57506000600554115b156105bc578163ffffffff166005546105679190611f4f565b8163ffffffff1660045461057b9190611f4f565b146105bb576040517f08c379a00000000000000000000000000000000000000000000000000000000081526004016105b290611fdd565b60405180910390fd5b5b6000600654036105ed576105e68163ffffffff168363ffffffff166105e19190611f4f565b611278565b9450610646565b60006004546006548463ffffffff166106069190611f4f565b610610919061202c565b905060006005546006548463ffffffff1661062b9190611f4f565b610635919061202c565b905061064182826112f2565b965050505b60008511610689576040517f08c379a0000000000000000000000000000000000000000000000000000000008152600401610680906120a9565b60405180910390fd5b610693338661130c565b6107d3600260009054906101000a900473ffffffffffffffffffffffffffffffffffffffff1673ffffffffffffffffffffffffffffffffffffffff166370a08231306040518263ffffffff1660e01b81526004016106f19190611dfd565b602060405180830381865afa15801561070e573d6000803e3d6000fd5b505050506040513d601f19601f8201168201806040525081019061073291906120f5565b600360009054906101000a900473ffffffffffffffffffffffffffffffffffffffff1673ffffffffffffffffffffffffffffffffffffffff166370a08231306040518263ffffffff1660e01b815260040161078d9190611dfd565b602060405180830381865afa1580156107aa573d6000803e3d6000fd5b505050506040513d601f19601f820116820180604052508101906107ce91906120f5565b61137f565b5050505092915050565b60055481565b60008060006107f18461119f565b905060006107fe826111b5565b90506000600260009054906101000a900473ffffffffffffffffffffffffffffffffffffffff1673ffffffffffffffffffffffffffffffffffffffff166370a08231306040518263ffffffff1660e01b815260040161085d9190611dfd565b602060405180830381865afa15801561087a573d6000803e3d6000fd5b505050506040513d601f19601f8201168201806040525081019061089e91906120f5565b90506000600360009054906101000a900473ffffffffffffffffffffffffffffffffffffffff1673ffffffffffffffffffffffffffffffffffffffff166370a08231306040518263ffffffff1660e01b81526004016108fd9190611dfd565b602060405180830381865afa15801561091a573d6000803e3d6000fd5b505050506040513d601f19601f8201168201806040525081019061093e91906120f5565b9050600654828463ffffffff166109559190611f4f565b61095f919061202c565b9550600654818463ffffffff166109769190611f4f565b610980919061202c565b94506000861180156109925750600085115b6109d1576040517f08c379a00000000000000000000000000000000000000000000000000000000081526004016109c89061216e565b60405180910390fd5b6109e1338463ffffffff16611391565b610a0186836109f0919061218e565b86836109fc919061218e565b61137f565b600260009054906101000a900473ffffffffffffffffffffffffffffffffffffffff1673ffffffffffffffffffffffffffffffffffffffff1663a9059cbb33886040518363ffffffff1660e01b8152600401610a5e9291906121c2565b6020604051808303816000875af1158015610a7d573d6000803e3d6000fd5b505050506040513d601f19601f82011682018060405250810190610aa19190611ef3565b50600360009054906101000a900473ffffffffffffffffffffffffffffffffffffffff1673ffffffffffffffffffffffffffffffffffffffff1663a9059cbb33876040518363ffffffff1660e01b8152600401610aff9291906121c2565b6020604051808303816000875af1158015610b1e573d6000803e3d6000fd5b505050506040513d601f19601f82011682018060405250810190610b429190611ef3565b5050505050915091565b60076020528060005260406000206000915090505481565b600080610b708361119f565b90506000610b7d826111b5565b9050600260009054906101000a900473ffffffffffffffffffffffffffffffffffffffff1673ffffffffffffffffffffffffffffffffffffffff168573ffffffffffffffffffffffffffffffffffffffff161480610c285750600360009054906101000a900473ffffffffffffffffffffffffffffffffffffffff1673ffffffffffffffffffffffffffffffffffffffff168573ffffffffffffffffffffffffffffffffffffffff16145b610c67576040517f08c379a0000000000000000000000000000000000000000000000000000000008152600401610c5e90612237565b60405180910390fd5b60008163ffffffff1611610cb0576040517f08c379a0000000000000000000000000000000000000000000000000000000008152600401610ca7906122a3565b60405180910390fd5b6000600260009054906101000a900473ffffffffffffffffffffffffffffffffffffffff1673ffffffffffffffffffffffffffffffffffffffff168673ffffffffffffffffffffffffffffffffffffffff1614905060008060008084610d6157600360009054906101000a900473ffffffffffffffffffffffffffffffffffffffff16600260009054906101000a900473ffffffffffffffffffffffffffffffffffffffff16600554600454610dae565b600260009054906101000a900473ffffffffffffffffffffffffffffffffffffffff16600360009054906101000a900473ffffffffffffffffffffffffffffffffffffffff166004546005545b93509350935093508373ffffffffffffffffffffffffffffffffffffffff166323b872dd33308963ffffffff166040518463ffffffff1660e01b8152600401610df993929190611e84565b6020604051808303816000875af1158015610e18573d6000803e3d6000fd5b505050506040513d601f19601f82011682018060405250810190610e3c9190611ef3565b5060006103e86103e58863ffffffff16610e569190611f4f565b610e60919061202c565b90508083610e6e91906122c3565b8183610e7a9190611f4f565b610e84919061202c565b98508373ffffffffffffffffffffffffffffffffffffffff1663a9059cbb338b6040518363ffffffff1660e01b8152600401610ec19291906121c2565b6020604051808303816000875af1158015610ee0573d6000803e3d6000fd5b505050506040513d601f19601f82011682018060405250810190610f049190611ef3565b50611045600260009054906101000a900473ffffffffffffffffffffffffffffffffffffffff1673ffffffffffffffffffffffffffffffffffffffff166370a08231306040518263ffffffff1660e01b8152600401610f639190611dfd565b602060405180830381865afa158015610f80573d6000803e3d6000fd5b505050506040513d601f19601f82011682018060405250810190610fa491906120f5565b600360009054906101000a900473ffffffffffffffffffffffffffffffffffffffff1673ffffffffffffffffffffffffffffffffffffffff166370a08231306040518263ffffffff1660e01b8152600401610fff9190611dfd565b602060405180830381865afa15801561101c573d6000803e3d6000fd5b505050506040513d601f19601f8201168201806040525081019061104091906120f5565b61137f565b505050505050505092915050565b60006060806000806000606061109360007f000000000000000000000000000000000000000000000000000000000000000061140490919063ffffffff16565b6110c760017f000000000000000000000000000000000000000000000000000000000000000061140490919063ffffffff16565b46306000801b600067ffffffffffffffff8111156110e8576110e76118d4565b5b6040519080825280602002602001820160405280156111165781602001602082028036833780820191505090505b507f0f00000000000000000000000000000000000000000000000000000000000000959493929190965096509650965096509650965090919293949596565b7f000000000000000000000000000000000000000000000000000000000000000081565b600360009054906101000a900473ffffffffffffffffffffffffffffffffffffffff1681565b60006111ae82600001516114b4565b9050919050565b60006111c0826114c8565b6111d1576111ce60006114d5565b91505b600082905060006111e1826114e9565b90506000608073ffffffffffffffffffffffffffffffffffffffff166373cc01546002846040518363ffffffff1660e01b8152600401611222929190612368565b602060405180830381865afa15801561123f573d6000803e3d6000fd5b505050506040513d601f19601f8201168201806040525081019061126391906120f5565b905061126e81611546565b9350505050919050565b600060038211156112df5781905060006001600284611297919061202c565b6112a191906122c3565b90505b818110156112d95780915060028182856112be919061202c565b6112c891906122c3565b6112d2919061202c565b90506112a4565b506112ed565b600082146112ec57600190505b5b919050565b6000818311156113025781611304565b825b905092915050565b80600760008473ffffffffffffffffffffffffffffffffffffffff1673ffffffffffffffffffffffffffffffffffffffff168152602001908152602001600020600082825461135b91906122c3565b92505081905550806006600082825461137491906122c3565b925050819055505050565b81600481905550806005819055505050565b80600760008473ffffffffffffffffffffffffffffffffffffffff1673ffffffffffffffffffffffffffffffffffffffff16815260200190815260200160002060008282546113e0919061218e565b9250508190555080600660008282546113f9919061218e565b925050819055505050565b606060ff60001b83146114215761141a83611550565b90506114ae565b81805461142d906123c7565b80601f0160208091040260200160405190810160405280929190818152602001828054611459906123c7565b80156114a65780601f1061147b576101008083540402835291602001916114a6565b820191906000526020600020905b81548152906001019060200180831161148957829003601f168201915b505050505090505b92915050565b60006114c18260026115c4565b9050919050565b6000808214159050919050565b60006114e282600261165e565b9050919050565b6060602067ffffffffffffffff811115611506576115056118d4565b5b6040519080825280601f01601f1916602001820160405280156115385781602001600182028036833780820191505090505b509050816020820152919050565b6000819050919050565b6060600061155d83611700565b90506000602067ffffffffffffffff81111561157c5761157b6118d4565b5b6040519080825280601f01601f1916602001820160405280156115ae5781602001600182028036833780820191505090505b5090508181528360208201528092505050919050565b60006060608073ffffffffffffffffffffffffffffffffffffffff16635fa55ca784866040518363ffffffff1660e01b8152600401611604929190612368565b600060405180830381865afa158015611621573d6000803e3d6000fd5b505050506040513d6000823e3d601f19601f8201168201806040525081019061164a9190612468565b905061165581611750565b91505092915050565b60006060608073ffffffffffffffffffffffffffffffffffffffff166319e1c5c4611688866114e9565b856040518363ffffffff1660e01b81526004016116a69291906124b1565b600060405180830381865afa1580156116c3573d6000803e3d6000fd5b505050506040513d6000823e3d601f19601f820116820180604052508101906116ec9190612468565b90506116f781611750565b91505092915050565b60008060ff8360001c169050601f811115611747576040517fb3512b0c00000000000000000000000000000000000000000000000000000000815260040160405180910390fd5b80915050919050565b600060208201519050919050565b600073ffffffffffffffffffffffffffffffffffffffff82169050919050565b6000819050919050565b60006117a361179e6117998461175e565b61177e565b61175e565b9050919050565b60006117b582611788565b9050919050565b60006117c7826117aa565b9050919050565b6117d7816117bc565b82525050565b60006020820190506117f260008301846117ce565b92915050565b6000819050919050565b61180b816117f8565b82525050565b60006020820190506118266000830184611802565b92915050565b6000604051905090565b600080fd5b600080fd5b600061184b8261175e565b9050919050565b61185b81611840565b811461186657600080fd5b50565b60008135905061187881611852565b92915050565b6000806040838503121561189557611894611836565b5b60006118a385828601611869565b92505060206118b485828601611869565b9150509250929050565b600080fd5b6000601f19601f8301169050919050565b7f4e487b7100000000000000000000000000000000000000000000000000000000600052604160045260246000fd5b61190c826118c3565b810181811067ffffffffffffffff8211171561192b5761192a6118d4565b5b80604052505050565b600061193e61182c565b905061194a8282611903565b919050565b600080fd5b600080fd5b600080fd5b600067ffffffffffffffff821115611979576119786118d4565b5b611982826118c3565b9050602081019050919050565b82818337600083830152505050565b60006119b16119ac8461195e565b611934565b9050828152602081018484840111156119cd576119cc611959565b5b6119d884828561198f565b509392505050565b600082601f8301126119f5576119f4611954565b5b8135611a0584826020860161199e565b91505092915050565b600060208284031215611a2457611a236118be565b5b611a2e6020611934565b9050600082013567ffffffffffffffff811115611a4e57611a4d61194f565b5b611a5a848285016119e0565b60008301525092915050565b60008060408385031215611a7d57611a7c611836565b5b600083013567ffffffffffffffff811115611a9b57611a9a61183b565b5b611aa785828601611a0e565b925050602083013567ffffffffffffffff811115611ac857611ac761183b565b5b611ad485828601611a0e565b9150509250929050565b600060208284031215611af457611af3611836565b5b600082013567ffffffffffffffff811115611b1257611b1161183b565b5b611b1e84828501611a0e565b91505092915050565b6000604082019050611b3c6000830185611802565b611b496020830184611802565b9392505050565b600060208284031215611b6657611b65611836565b5b6000611b7484828501611869565b91505092915050565b60008060408385031215611b9457611b93611836565b5b6000611ba285828601611869565b925050602083013567ffffffffffffffff811115611bc357611bc261183b565b5b611bcf85828601611a0e565b9150509250929050565b60007fff0000000000000000000000000000000000000000000000000000000000000082169050919050565b611c0e81611bd9565b82525050565b600081519050919050565b600082825260208201905092915050565b60005b83811015611c4e578082015181840152602081019050611c33565b60008484015250505050565b6000611c6582611c14565b611c6f8185611c1f565b9350611c7f818560208601611c30565b611c88816118c3565b840191505092915050565b611c9c81611840565b82525050565b6000819050919050565b611cb581611ca2565b82525050565b600081519050919050565b600082825260208201905092915050565b6000819050602082019050919050565b611cf0816117f8565b82525050565b6000611d028383611ce7565b60208301905092915050565b6000602082019050919050565b6000611d2682611cbb565b611d308185611cc6565b9350611d3b83611cd7565b8060005b83811015611d6c578151611d538882611cf6565b9750611d5e83611d0e565b925050600181019050611d3f565b5085935050505092915050565b600060e082019050611d8e600083018a611c05565b8181036020830152611da08189611c5a565b90508181036040830152611db48188611c5a565b9050611dc36060830187611802565b611dd06080830186611c93565b611ddd60a0830185611cac565b81810360c0830152611def8184611d1b565b905098975050505050505050565b6000602082019050611e126000830184611c93565b92915050565b7f464f5242494444454e0000000000000000000000000000000000000000000000600082015250565b6000611e4e600983611c1f565b9150611e5982611e18565b602082019050919050565b60006020820190508181036000830152611e7d81611e41565b9050919050565b6000606082019050611e996000830186611c93565b611ea66020830185611c93565b611eb36040830184611802565b949350505050565b60008115159050919050565b611ed081611ebb565b8114611edb57600080fd5b50565b600081519050611eed81611ec7565b92915050565b600060208284031215611f0957611f08611836565b5b6000611f1784828501611ede565b91505092915050565b7f4e487b7100000000000000000000000000000000000000000000000000000000600052601160045260246000fd5b6000611f5a826117f8565b9150611f65836117f8565b9250828202611f73816117f8565b91508282048414831517611f8a57611f89611f20565b5b5092915050565b7f78202f207920213d206478202f20647900000000000000000000000000000000600082015250565b6000611fc7601083611c1f565b9150611fd282611f91565b602082019050919050565b60006020820190508181036000830152611ff681611fba565b9050919050565b7f4e487b7100000000000000000000000000000000000000000000000000000000600052601260045260246000fd5b6000612037826117f8565b9150612042836117f8565b92508261205257612051611ffd565b5b828204905092915050565b7f736861726573203d203000000000000000000000000000000000000000000000600082015250565b6000612093600a83611c1f565b915061209e8261205d565b602082019050919050565b600060208201905081810360008301526120c281612086565b9050919050565b6120d2816117f8565b81146120dd57600080fd5b50565b6000815190506120ef816120c9565b92915050565b60006020828403121561210b5761210a611836565b5b6000612119848285016120e0565b91505092915050565b7f616d6f756e7430206f7220616d6f756e7431203d203000000000000000000000600082015250565b6000612158601683611c1f565b915061216382612122565b602082019050919050565b600060208201905081810360008301526121878161214b565b9050919050565b6000612199826117f8565b91506121a4836117f8565b92508282039050818111156121bc576121bb611f20565b5b92915050565b60006040820190506121d76000830185611c93565b6121e46020830184611802565b9392505050565b7f696e76616c696420746f6b656e00000000000000000000000000000000000000600082015250565b6000612221600d83611c1f565b915061222c826121eb565b602082019050919050565b6000602082019050818103600083015261225081612214565b9050919050565b7f616d6f756e7420696e203d203000000000000000000000000000000000000000600082015250565b600061228d600d83611c1f565b915061229882612257565b602082019050919050565b600060208201905081810360008301526122bc81612280565b9050919050565b60006122ce826117f8565b91506122d9836117f8565b92508282019050808211156122f1576122f0611f20565b5b92915050565b600060ff82169050919050565b61230d816122f7565b82525050565b600081519050919050565b600082825260208201905092915050565b600061233a82612313565b612344818561231e565b9350612354818560208601611c30565b61235d816118c3565b840191505092915050565b600060408201905061237d6000830185612304565b818103602083015261238f818461232f565b90509392505050565b7f4e487b7100000000000000000000000000000000000000000000000000000000600052602260045260246000fd5b600060028204905060018216806123df57607f821691505b6020821081036123f2576123f1612398565b5b50919050565b600061240b6124068461195e565b611934565b90508281526020810184848401111561242757612426611959565b5b612432848285611c30565b509392505050565b600082601f83011261244f5761244e611954565b5b815161245f8482602086016123f8565b91505092915050565b60006020828403121561247e5761247d611836565b5b600082015167ffffffffffffffff81111561249c5761249b61183b565b5b6124a88482850161243a565b91505092915050565b600060408201905081810360008301526124cb818561232f565b90506124da6020830184612304565b939250505056fea2646970667358221220ef87e0e67f3519e846a5b6588480903825c7d4fcba85bf3cd080791b5e26b46164736f6c63430008130033",
  "devdoc": {
    "events": {
      "EIP712DomainChanged()": {
        "details": "MAY be emitted to signal that the domain could have changed."
      }
    },
    "kind": "dev",
    "methods": {
      "eip712Domain()": {
        "details": "See {EIP-5267}. _Available since v4.9._"
      }
    },
    "version": 1
  },
  "userdoc": {
    "kind": "user",
    "methods": {},
    "version": 1
  },
  "storageLayout": {
    "storage": [
      {
        "astId": 9669,
        "contract": "contracts/PairFHE.sol:Pair",
        "label": "_nameFallback",
        "offset": 0,
        "slot": "0",
        "type": "t_string_storage"
      },
      {
        "astId": 9671,
        "contract": "contracts/PairFHE.sol:Pair",
        "label": "_versionFallback",
        "offset": 0,
        "slot": "1",
        "type": "t_string_storage"
      },
      {
        "astId": 10820,
        "contract": "contracts/PairFHE.sol:Pair",
        "label": "token0",
        "offset": 0,
        "slot": "2",
        "type": "t_contract(IERC20)11514"
      },
      {
        "astId": 10823,
        "contract": "contracts/PairFHE.sol:Pair",
        "label": "token1",
        "offset": 0,
        "slot": "3",
        "type": "t_contract(IERC20)11514"
      },
      {
        "astId": 10827,
        "contract": "contracts/PairFHE.sol:Pair",
        "label": "reserve0",
        "offset": 0,
        "slot": "4",
        "type": "t_uint256"
      },
      {
        "astId": 10829,
        "contract": "contracts/PairFHE.sol:Pair",
        "label": "reserve1",
        "offset": 0,
        "slot": "5",
        "type": "t_uint256"
      },
      {
        "astId": 10831,
        "contract": "contracts/PairFHE.sol:Pair",
        "label": "totalSupply",
        "offset": 0,
        "slot": "6",
        "type": "t_uint256"
      },
      {
        "astId": 10835,
        "contract": "contracts/PairFHE.sol:Pair",
        "label": "balanceOf",
        "offset": 0,
        "slot": "7",
        "type": "t_mapping(t_address,t_uint256)"
      }
    ],
    "types": {
      "t_address": {
        "encoding": "inplace",
        "label": "address",
        "numberOfBytes": "20"
      },
      "t_contract(IERC20)11514": {
        "encoding": "inplace",
        "label": "contract IERC20",
        "numberOfBytes": "20"
      },
      "t_mapping(t_address,t_uint256)": {
        "encoding": "mapping",
        "key": "t_address",
        "label": "mapping(address => uint256)",
        "numberOfBytes": "32",
        "value": "t_uint256"
      },
      "t_string_storage": {
        "encoding": "bytes",
        "label": "string",
        "numberOfBytes": "32"
      },
      "t_uint256": {
        "encoding": "inplace",
        "label": "uint256",
        "numberOfBytes": "32"
      }
    }
  }
}