{
  "address": "0xAD196f96fD1E3d977784cc2Ccb24cDAF00FeBf3f",
  "abi": [
    {
      "inputs": [],
      "stateMutability": "nonpayable",
      "type": "constructor"
    },
    {
      "inputs": [
        {
          "components": [
            {
              "internalType": "bytes",
              "name": "data",
              "type": "bytes"
            }
          ],
          "internalType": "struct inEuint32",
          "name": "_amount0",
          "type": "tuple"
        },
        {
          "components": [
            {
              "internalType": "bytes",
              "name": "data",
              "type": "bytes"
            }
          ],
          "internalType": "struct inEuint32",
          "name": "_amount1",
          "type": "tuple"
        }
      ],
      "name": "addLiquidity",
      "outputs": [
        {
          "internalType": "uint256",
          "name": "shares",
          "type": "uint256"
        }
      ],
      "stateMutability": "nonpayable",
      "type": "function"
    },
    {
      "inputs": [
        {
          "internalType": "address",
          "name": "",
          "type": "address"
        }
      ],
      "name": "balanceOf",
      "outputs": [
        {
          "internalType": "uint256",
          "name": "",
          "type": "uint256"
        }
      ],
      "stateMutability": "view",
      "type": "function"
    },
    {
      "inputs": [],
      "name": "factory",
      "outputs": [
        {
          "internalType": "address",
          "name": "",
          "type": "address"
        }
      ],
      "stateMutability": "view",
      "type": "function"
    },
    {
      "inputs": [
        {
          "internalType": "address",
          "name": "_token0",
          "type": "address"
        },
        {
          "internalType": "address",
          "name": "_token1",
          "type": "address"
        }
      ],
      "name": "initialize",
      "outputs": [],
      "stateMutability": "nonpayable",
      "type": "function"
    },
    {
      "inputs": [
        {
          "components": [
            {
              "internalType": "bytes",
              "name": "data",
              "type": "bytes"
            }
          ],
          "internalType": "struct inEuint32",
          "name": "_shares",
          "type": "tuple"
        }
      ],
      "name": "removeLiquidity",
      "outputs": [
        {
          "internalType": "uint256",
          "name": "amount0",
          "type": "uint256"
        },
        {
          "internalType": "uint256",
          "name": "amount1",
          "type": "uint256"
        }
      ],
      "stateMutability": "nonpayable",
      "type": "function"
    },
    {
      "inputs": [],
      "name": "reserve0",
      "outputs": [
        {
          "internalType": "uint256",
          "name": "",
          "type": "uint256"
        }
      ],
      "stateMutability": "view",
      "type": "function"
    },
    {
      "inputs": [],
      "name": "reserve1",
      "outputs": [
        {
          "internalType": "uint256",
          "name": "",
          "type": "uint256"
        }
      ],
      "stateMutability": "view",
      "type": "function"
    },
    {
      "inputs": [
        {
          "internalType": "address",
          "name": "_tokenIn",
          "type": "address"
        },
        {
          "components": [
            {
              "internalType": "bytes",
              "name": "data",
              "type": "bytes"
            }
          ],
          "internalType": "struct inEuint32",
          "name": "_amountIn",
          "type": "tuple"
        }
      ],
      "name": "swap",
      "outputs": [
        {
          "internalType": "uint256",
          "name": "amountOut",
          "type": "uint256"
        }
      ],
      "stateMutability": "nonpayable",
      "type": "function"
    },
    {
      "inputs": [],
      "name": "token0",
      "outputs": [
        {
          "internalType": "contract IERC20",
          "name": "",
          "type": "address"
        }
      ],
      "stateMutability": "view",
      "type": "function"
    },
    {
      "inputs": [],
      "name": "token1",
      "outputs": [
        {
          "internalType": "contract IERC20",
          "name": "",
          "type": "address"
        }
      ],
      "stateMutability": "view",
      "type": "function"
    },
    {
      "inputs": [],
      "name": "totalSupply",
      "outputs": [
        {
          "internalType": "uint256",
          "name": "",
          "type": "uint256"
        }
      ],
      "stateMutability": "view",
      "type": "function"
    }
  ],
  "transactionHash": "0xc314b403e1045ceca606dbe7b7af5914d9bfad2c7095a592764f7f3b09d97770",
  "args": [],
  "numDeployments": 3,
  "solcInputHash": "2c806643492abbd8172f4e9003352549",
  "bytecode": "0x608060405234801561001057600080fd5b5033600260006101000a81548173ffffffffffffffffffffffffffffffffffffffff021916908373ffffffffffffffffffffffffffffffffffffffff16021790555061206c806100616000396000f3fe608060405234801561001057600080fd5b50600436106100a95760003560e01c80635a76f25e116100715780635a76f25e146101545780635b18de5f1461017257806370a08231146101a357806374bfd999146101d3578063c45a015514610203578063d21220a714610221576100a9565b80630dfe1681146100ae57806318160ddd146100cc578063443cb4bc146100ea578063485cc9551461010857806352dc029114610124575b600080fd5b6100b661023f565b6040516100c39190611535565b60405180910390f35b6100d4610263565b6040516100e19190611569565b60405180910390f35b6100f2610269565b6040516100ff9190611569565b60405180910390f35b610122600480360381019061011d91906115d6565b61026f565b005b61013e6004803603810190610139919061163a565b610384565b60405161014b9190611569565b60405180910390f35b61015c6107af565b6040516101699190611569565b60405180910390f35b61018c600480360381019061018791906116b2565b6107b5565b60405161019a9291906116fb565b60405180910390f35b6101bd60048036038101906101b89190611724565b610b24565b6040516101ca9190611569565b60405180910390f35b6101ed60048036038101906101e89190611751565b610b3c565b6040516101fa9190611569565b60405180910390f35b61020b61101f565b60405161021891906117bc565b60405180910390f35b610229611045565b6040516102369190611535565b60405180910390f35b60008054906101000a900473ffffffffffffffffffffffffffffffffffffffff1681565b60055481565b60035481565b600260009054906101000a900473ffffffffffffffffffffffffffffffffffffffff1673ffffffffffffffffffffffffffffffffffffffff163373ffffffffffffffffffffffffffffffffffffffff16146102ff576040517f08c379a00000000000000000000000000000000000000000000000000000000081526004016102f690611834565b60405180910390fd5b816000806101000a81548173ffffffffffffffffffffffffffffffffffffffff021916908373ffffffffffffffffffffffffffffffffffffffff16021790555080600160006101000a81548173ffffffffffffffffffffffffffffffffffffffff021916908373ffffffffffffffffffffffffffffffffffffffff1602179055505050565b60008061039984610394906119fc565b61106b565b905060006103af846103aa906119fc565b61106b565b905060006103bc83611081565b905060006103c983611081565b905060008054906101000a900473ffffffffffffffffffffffffffffffffffffffff1673ffffffffffffffffffffffffffffffffffffffff166323b872dd33308563ffffffff166040518463ffffffff1660e01b815260040161042e93929190611a0f565b6020604051808303816000875af115801561044d573d6000803e3d6000fd5b505050506040513d601f19601f820116820180604052508101906104719190611a7e565b50600160009054906101000a900473ffffffffffffffffffffffffffffffffffffffff1673ffffffffffffffffffffffffffffffffffffffff166323b872dd33308463ffffffff166040518463ffffffff1660e01b81526004016104d793929190611a0f565b6020604051808303816000875af11580156104f6573d6000803e3d6000fd5b505050506040513d601f19601f8201168201806040525081019061051a9190611a7e565b506000600354118061052e57506000600454115b1561059c578163ffffffff166004546105479190611ada565b8163ffffffff1660035461055b9190611ada565b1461059b576040517f08c379a000000000000000000000000000000000000000000000000000000000815260040161059290611b68565b60405180910390fd5b5b6000600554036105cd576105c68163ffffffff168363ffffffff166105c19190611ada565b611144565b945061061a565b6106176003546005548463ffffffff166105e79190611ada565b6105f19190611bb7565b6004546005548463ffffffff166106089190611ada565b6106129190611bb7565b6111be565b94505b6000851161065d576040517f08c379a000000000000000000000000000000000000000000000000000000000815260040161065490611c34565b60405180910390fd5b61066733866111d8565b6107a560008054906101000a900473ffffffffffffffffffffffffffffffffffffffff1673ffffffffffffffffffffffffffffffffffffffff166370a08231306040518263ffffffff1660e01b81526004016106c391906117bc565b602060405180830381865afa1580156106e0573d6000803e3d6000fd5b505050506040513d601f19601f820116820180604052508101906107049190611c80565b600160009054906101000a900473ffffffffffffffffffffffffffffffffffffffff1673ffffffffffffffffffffffffffffffffffffffff166370a08231306040518263ffffffff1660e01b815260040161075f91906117bc565b602060405180830381865afa15801561077c573d6000803e3d6000fd5b505050506040513d601f19601f820116820180604052508101906107a09190611c80565b61124b565b5050505092915050565b60045481565b60008060006107cc846107c7906119fc565b61106b565b905060006107d982611081565b905060008060009054906101000a900473ffffffffffffffffffffffffffffffffffffffff1673ffffffffffffffffffffffffffffffffffffffff166370a08231306040518263ffffffff1660e01b815260040161083791906117bc565b602060405180830381865afa158015610854573d6000803e3d6000fd5b505050506040513d601f19601f820116820180604052508101906108789190611c80565b90506000600160009054906101000a900473ffffffffffffffffffffffffffffffffffffffff1673ffffffffffffffffffffffffffffffffffffffff166370a08231306040518263ffffffff1660e01b81526004016108d791906117bc565b602060405180830381865afa1580156108f4573d6000803e3d6000fd5b505050506040513d601f19601f820116820180604052508101906109189190611c80565b9050600554828463ffffffff1661092f9190611ada565b6109399190611bb7565b9550600554818463ffffffff166109509190611ada565b61095a9190611bb7565b945060008611801561096c5750600085115b6109ab576040517f08c379a00000000000000000000000000000000000000000000000000000000081526004016109a290611cf9565b60405180910390fd5b6109bb338463ffffffff1661125d565b6109db86836109ca9190611d19565b86836109d69190611d19565b61124b565b60008054906101000a900473ffffffffffffffffffffffffffffffffffffffff1673ffffffffffffffffffffffffffffffffffffffff1663a9059cbb33886040518363ffffffff1660e01b8152600401610a36929190611d4d565b6020604051808303816000875af1158015610a55573d6000803e3d6000fd5b505050506040513d601f19601f82011682018060405250810190610a799190611a7e565b50600160009054906101000a900473ffffffffffffffffffffffffffffffffffffffff1673ffffffffffffffffffffffffffffffffffffffff1663a9059cbb33876040518363ffffffff1660e01b8152600401610ad7929190611d4d565b6020604051808303816000875af1158015610af6573d6000803e3d6000fd5b505050506040513d601f19601f82011682018060405250810190610b1a9190611a7e565b5050505050915091565b60066020528060005260406000206000915090505481565b600080610b5183610b4c906119fc565b61106b565b90506000610b5e82611081565b63ffffffff16905060008054906101000a900473ffffffffffffffffffffffffffffffffffffffff1673ffffffffffffffffffffffffffffffffffffffff168573ffffffffffffffffffffffffffffffffffffffff161480610c0d5750600160009054906101000a900473ffffffffffffffffffffffffffffffffffffffff1673ffffffffffffffffffffffffffffffffffffffff168573ffffffffffffffffffffffffffffffffffffffff16145b610c4c576040517f08c379a0000000000000000000000000000000000000000000000000000000008152600401610c4390611dc2565b60405180910390fd5b60008111610c8f576040517f08c379a0000000000000000000000000000000000000000000000000000000008152600401610c8690611e2e565b60405180910390fd5b60008060009054906101000a900473ffffffffffffffffffffffffffffffffffffffff1673ffffffffffffffffffffffffffffffffffffffff168673ffffffffffffffffffffffffffffffffffffffff1614905060008060008084610d3d57600160009054906101000a900473ffffffffffffffffffffffffffffffffffffffff1660008054906101000a900473ffffffffffffffffffffffffffffffffffffffff16600454600354610d88565b60008054906101000a900473ffffffffffffffffffffffffffffffffffffffff16600160009054906101000a900473ffffffffffffffffffffffffffffffffffffffff166003546004545b93509350935093508373ffffffffffffffffffffffffffffffffffffffff166323b872dd3330896040518463ffffffff1660e01b8152600401610dcd93929190611a0f565b6020604051808303816000875af1158015610dec573d6000803e3d6000fd5b505050506040513d601f19601f82011682018060405250810190610e109190611a7e565b5060006103e86103e588610e249190611ada565b610e2e9190611bb7565b90508083610e3c9190611e4e565b8183610e489190611ada565b610e529190611bb7565b98508373ffffffffffffffffffffffffffffffffffffffff1663a9059cbb338b6040518363ffffffff1660e01b8152600401610e8f929190611d4d565b6020604051808303816000875af1158015610eae573d6000803e3d6000fd5b505050506040513d601f19601f82011682018060405250810190610ed29190611a7e565b5061101160008054906101000a900473ffffffffffffffffffffffffffffffffffffffff1673ffffffffffffffffffffffffffffffffffffffff166370a08231306040518263ffffffff1660e01b8152600401610f2f91906117bc565b602060405180830381865afa158015610f4c573d6000803e3d6000fd5b505050506040513d601f19601f82011682018060405250810190610f709190611c80565b600160009054906101000a900473ffffffffffffffffffffffffffffffffffffffff1673ffffffffffffffffffffffffffffffffffffffff166370a08231306040518263ffffffff1660e01b8152600401610fcb91906117bc565b602060405180830381865afa158015610fe8573d6000803e3d6000fd5b505050506040513d601f19601f8201168201806040525081019061100c9190611c80565b61124b565b505050505050505092915050565b600260009054906101000a900473ffffffffffffffffffffffffffffffffffffffff1681565b600160009054906101000a900473ffffffffffffffffffffffffffffffffffffffff1681565b600061107a82600001516112d0565b9050919050565b600061108c826112e4565b61109d5761109a60006112f1565b91505b600082905060006110ad82611305565b90506000608073ffffffffffffffffffffffffffffffffffffffff166373cc01546002846040518363ffffffff1660e01b81526004016110ee929190611f1d565b602060405180830381865afa15801561110b573d6000803e3d6000fd5b505050506040513d601f19601f8201168201806040525081019061112f9190611c80565b905061113a81611362565b9350505050919050565b600060038211156111ab57819050600060016002846111639190611bb7565b61116d9190611e4e565b90505b818110156111a557809150600281828561118a9190611bb7565b6111949190611e4e565b61119e9190611bb7565b9050611170565b506111b9565b600082146111b857600190505b5b919050565b6000818311156111ce57816111d0565b825b905092915050565b80600660008473ffffffffffffffffffffffffffffffffffffffff1673ffffffffffffffffffffffffffffffffffffffff16815260200190815260200160002060008282546112279190611e4e565b9250508190555080600560008282546112409190611e4e565b925050819055505050565b81600381905550806004819055505050565b80600660008473ffffffffffffffffffffffffffffffffffffffff1673ffffffffffffffffffffffffffffffffffffffff16815260200190815260200160002060008282546112ac9190611d19565b9250508190555080600560008282546112c59190611d19565b925050819055505050565b60006112dd82600261136c565b9050919050565b6000808214159050919050565b60006112fe826002611406565b9050919050565b6060602067ffffffffffffffff8111156113225761132161186a565b5b6040519080825280601f01601f1916602001820160405280156113545781602001600182028036833780820191505090505b509050816020820152919050565b6000819050919050565b60006060608073ffffffffffffffffffffffffffffffffffffffff16635fa55ca784866040518363ffffffff1660e01b81526004016113ac929190611f1d565b600060405180830381865afa1580156113c9573d6000803e3d6000fd5b505050506040513d6000823e3d601f19601f820116820180604052508101906113f29190611fbd565b90506113fd816114a8565b91505092915050565b60006060608073ffffffffffffffffffffffffffffffffffffffff166319e1c5c461143086611305565b856040518363ffffffff1660e01b815260040161144e929190612006565b600060405180830381865afa15801561146b573d6000803e3d6000fd5b505050506040513d6000823e3d601f19601f820116820180604052508101906114949190611fbd565b905061149f816114a8565b91505092915050565b600060208201519050919050565b600073ffffffffffffffffffffffffffffffffffffffff82169050919050565b6000819050919050565b60006114fb6114f66114f1846114b6565b6114d6565b6114b6565b9050919050565b600061150d826114e0565b9050919050565b600061151f82611502565b9050919050565b61152f81611514565b82525050565b600060208201905061154a6000830184611526565b92915050565b6000819050919050565b61156381611550565b82525050565b600060208201905061157e600083018461155a565b92915050565b6000604051905090565b600080fd5b600080fd5b60006115a3826114b6565b9050919050565b6115b381611598565b81146115be57600080fd5b50565b6000813590506115d0816115aa565b92915050565b600080604083850312156115ed576115ec61158e565b5b60006115fb858286016115c1565b925050602061160c858286016115c1565b9150509250929050565b600080fd5b60006020828403121561163157611630611616565b5b81905092915050565b600080604083850312156116515761165061158e565b5b600083013567ffffffffffffffff81111561166f5761166e611593565b5b61167b8582860161161b565b925050602083013567ffffffffffffffff81111561169c5761169b611593565b5b6116a88582860161161b565b9150509250929050565b6000602082840312156116c8576116c761158e565b5b600082013567ffffffffffffffff8111156116e6576116e5611593565b5b6116f28482850161161b565b91505092915050565b6000604082019050611710600083018561155a565b61171d602083018461155a565b9392505050565b60006020828403121561173a5761173961158e565b5b6000611748848285016115c1565b91505092915050565b600080604083850312156117685761176761158e565b5b6000611776858286016115c1565b925050602083013567ffffffffffffffff81111561179757611796611593565b5b6117a38582860161161b565b9150509250929050565b6117b681611598565b82525050565b60006020820190506117d160008301846117ad565b92915050565b600082825260208201905092915050565b7f4f6e6c7920466163746f72792063616e2063616c6c2074686973000000000000600082015250565b600061181e601a836117d7565b9150611829826117e8565b602082019050919050565b6000602082019050818103600083015261184d81611811565b9050919050565b600080fd5b6000601f19601f8301169050919050565b7f4e487b7100000000000000000000000000000000000000000000000000000000600052604160045260246000fd5b6118a282611859565b810181811067ffffffffffffffff821117156118c1576118c061186a565b5b80604052505050565b60006118d4611584565b90506118e08282611899565b919050565b600080fd5b600080fd5b600080fd5b600067ffffffffffffffff82111561190f5761190e61186a565b5b61191882611859565b9050602081019050919050565b82818337600083830152505050565b6000611947611942846118f4565b6118ca565b905082815260208101848484011115611963576119626118ef565b5b61196e848285611925565b509392505050565b600082601f83011261198b5761198a6118ea565b5b813561199b848260208601611934565b91505092915050565b6000602082840312156119ba576119b9611854565b5b6119c460206118ca565b9050600082013567ffffffffffffffff8111156119e4576119e36118e5565b5b6119f084828501611976565b60008301525092915050565b6000611a0836836119a4565b9050919050565b6000606082019050611a2460008301866117ad565b611a3160208301856117ad565b611a3e604083018461155a565b949350505050565b60008115159050919050565b611a5b81611a46565b8114611a6657600080fd5b50565b600081519050611a7881611a52565b92915050565b600060208284031215611a9457611a9361158e565b5b6000611aa284828501611a69565b91505092915050565b7f4e487b7100000000000000000000000000000000000000000000000000000000600052601160045260246000fd5b6000611ae582611550565b9150611af083611550565b9250828202611afe81611550565b91508282048414831517611b1557611b14611aab565b5b5092915050565b7f78202f207920213d206478202f20647900000000000000000000000000000000600082015250565b6000611b526010836117d7565b9150611b5d82611b1c565b602082019050919050565b60006020820190508181036000830152611b8181611b45565b9050919050565b7f4e487b7100000000000000000000000000000000000000000000000000000000600052601260045260246000fd5b6000611bc282611550565b9150611bcd83611550565b925082611bdd57611bdc611b88565b5b828204905092915050565b7f736861726573203d203000000000000000000000000000000000000000000000600082015250565b6000611c1e600a836117d7565b9150611c2982611be8565b602082019050919050565b60006020820190508181036000830152611c4d81611c11565b9050919050565b611c5d81611550565b8114611c6857600080fd5b50565b600081519050611c7a81611c54565b92915050565b600060208284031215611c9657611c9561158e565b5b6000611ca484828501611c6b565b91505092915050565b7f616d6f756e7430206f7220616d6f756e7431203d203000000000000000000000600082015250565b6000611ce36016836117d7565b9150611cee82611cad565b602082019050919050565b60006020820190508181036000830152611d1281611cd6565b9050919050565b6000611d2482611550565b9150611d2f83611550565b9250828203905081811115611d4757611d46611aab565b5b92915050565b6000604082019050611d6260008301856117ad565b611d6f602083018461155a565b9392505050565b7f696e76616c696420746f6b656e00000000000000000000000000000000000000600082015250565b6000611dac600d836117d7565b9150611db782611d76565b602082019050919050565b60006020820190508181036000830152611ddb81611d9f565b9050919050565b7f616d6f756e7420696e203d203000000000000000000000000000000000000000600082015250565b6000611e18600d836117d7565b9150611e2382611de2565b602082019050919050565b60006020820190508181036000830152611e4781611e0b565b9050919050565b6000611e5982611550565b9150611e6483611550565b9250828201905080821115611e7c57611e7b611aab565b5b92915050565b600060ff82169050919050565b611e9881611e82565b82525050565b600081519050919050565b600082825260208201905092915050565b60005b83811015611ed8578082015181840152602081019050611ebd565b60008484015250505050565b6000611eef82611e9e565b611ef98185611ea9565b9350611f09818560208601611eba565b611f1281611859565b840191505092915050565b6000604082019050611f326000830185611e8f565b8181036020830152611f448184611ee4565b90509392505050565b6000611f60611f5b846118f4565b6118ca565b905082815260208101848484011115611f7c57611f7b6118ef565b5b611f87848285611eba565b509392505050565b600082601f830112611fa457611fa36118ea565b5b8151611fb4848260208601611f4d565b91505092915050565b600060208284031215611fd357611fd261158e565b5b600082015167ffffffffffffffff811115611ff157611ff0611593565b5b611ffd84828501611f8f565b91505092915050565b600060408201905081810360008301526120208185611ee4565b905061202f6020830184611e8f565b939250505056fea2646970667358221220ad15909c6192b14104c54c4205904ae4661e24d6bdd97f52f86974a4bc4cb68f64736f6c63430008130033",
  "devdoc": {
    "kind": "dev",
    "methods": {},
    "version": 1
  },
  "userdoc": {
    "kind": "user",
    "methods": {},
    "version": 1
  },
  "storageLayout": {
    "storage": [
      {
        "astId": 8697,
        "contract": "contracts/EncryptedPairFHE.sol:Pair",
        "label": "token0",
        "offset": 0,
        "slot": "0",
        "type": "t_contract(IERC20)9548"
      },
      {
        "astId": 8700,
        "contract": "contracts/EncryptedPairFHE.sol:Pair",
        "label": "token1",
        "offset": 0,
        "slot": "1",
        "type": "t_contract(IERC20)9548"
      },
      {
        "astId": 8702,
        "contract": "contracts/EncryptedPairFHE.sol:Pair",
        "label": "factory",
        "offset": 0,
        "slot": "2",
        "type": "t_address"
      },
      {
        "astId": 8704,
        "contract": "contracts/EncryptedPairFHE.sol:Pair",
        "label": "reserve0",
        "offset": 0,
        "slot": "3",
        "type": "t_uint256"
      },
      {
        "astId": 8706,
        "contract": "contracts/EncryptedPairFHE.sol:Pair",
        "label": "reserve1",
        "offset": 0,
        "slot": "4",
        "type": "t_uint256"
      },
      {
        "astId": 8708,
        "contract": "contracts/EncryptedPairFHE.sol:Pair",
        "label": "totalSupply",
        "offset": 0,
        "slot": "5",
        "type": "t_uint256"
      },
      {
        "astId": 8712,
        "contract": "contracts/EncryptedPairFHE.sol:Pair",
        "label": "balanceOf",
        "offset": 0,
        "slot": "6",
        "type": "t_mapping(t_address,t_uint256)"
      }
    ],
    "types": {
      "t_address": {
        "encoding": "inplace",
        "label": "address",
        "numberOfBytes": "20"
      },
      "t_contract(IERC20)9548": {
        "encoding": "inplace",
        "label": "contract IERC20",
        "numberOfBytes": "20"
      },
      "t_mapping(t_address,t_uint256)": {
        "encoding": "mapping",
        "key": "t_address",
        "label": "mapping(address => uint256)",
        "numberOfBytes": "32",
        "value": "t_uint256"
      },
      "t_uint256": {
        "encoding": "inplace",
        "label": "uint256",
        "numberOfBytes": "32"
      }
    }
  }
}